:040000005AEF00F0C3
:100008005F82FACF4BF0FBCF4CF0E9CF4DF0EACF4F
:100018004EF0E1CF4FF0E2CF50F0D9CF51F0DACF28
:1000280052F0F3CF53F0F4CF54F0F6CF55F0F7CFAA
:1000380056F0F8CF57F0F5CF58F05FC059F060C0D0
:100048005AF061C05BF062C05CF0F2BAF2A403D06F
:100058008AEC18F005D0F2B6F2A002D058EC0FF0F6
:100068005CC062F05BC061F05AC060F059C05FF0DC
:1000780058C0F5FF57C0F8FF56C0F7FF55C0F6FF48
:1000880054C0F4FF53C0F3FF52C0DAFF51C0D9FF88
:1000980050C0E2FF4FC0E1FF4EC0EAFF4DC0E9FF8C
:1000A8004CC0FBFF4BC0FAFF5F921100FEEF15F04A
:1000B800466E0001C851D8A49BD1A6D14650D8B4E9
:1000C80025D0AFC001F0B0C002F0B1C003F0000EFF
:1000D800046E7F0E056E430E066EA2EC0FF0D8B0CC
:1000E80039D0AFC009F0B0C00AF0B1C00BF0000EB3
:1000F8000C6E800E0D6E3F0E0E6EFDEC06F009C004
:10010800AFF00AC0B0F00BC0B1F024D0000E016E01
:10011800000E026E000E036EAFC004F0B0C005F012
:10012800B1C006F0A2EC0FF0D8B014D0AFC015F0F3
:10013800B0C016F0B1C017F0000E186E800E196E20
:100148003F0E1A6EA9EC16F015C0AFF016C0B0F04D
:1001580017C0B1F0AFC027F0B0C028F0B1C029F087
:10016800ACC02AF0ADC02BF0AEC02CF0A9C02DF069
:10017800AAC02EF0ABC02FF03DEC04F0020E0C6EBE
:100188005E5004EC12F03C0E116E000E126EAFC001
:1001980001F0B0C002F0B1C003F0C6EC0AF001C033
:1001A80013F002C014F0000E166E0A0E156E67ECFE
:1001B80016F03C0E0E6E000E0F6E02EC15F0E70EF8
:1001C8000E6EFF0E0F6E02EC15F012004650D8B4FA
:1001D80025D0ACC001F0ADC002F0AEC003F0000EF7
:1001E800046E7F0E056E430E066EA2EC0FF0D8B0BB
:1001F80039D0ACC009F0ADC00AF0AEC00BF0000EAB
:100208000C6E800E0D6E3F0E0E6EFDEC06F009C0F2
:10021800ACF00AC0ADF00BC0AEF024D0000E016EF9
:10022800000E026E000E036EACC004F0ADC005F007
:10023800AEC006F0A2EC0FF0D8B014D0ACC015F0E8
:10024800ADC016F0AEC017F0000E186E800E196E15
:100258003F0E1A6EA9EC16F015C0ACF016C0ADF042
:1002680017C0AEF0AFC027F0B0C028F0B1C029F079
:10027800ACC02AF0ADC02BF0AEC02CF0A9C02DF058
:10028800AAC02EF0ABC02FF03DEC04F0030E0C6EAC
:100298005E5004EC12F03C0E116E000E126EACC0F3
:1002A80001F0ADC002F0AEC003F0C6EC0AF001C028
:1002B80013F002C014F0000E166E0A0E156E67ECED
:1002C80016F03C0E0E6E000E0F6E02EC15F0E70EE7
:1002D8000E6EFF0E0F6E02EC15F012004650D8B4E9
:1002E80025D0A9C001F0AAC002F0ABC003F0000EEF
:1002F800046E7F0E056E430E066EA2EC0FF0D8B0AA
:1003080039D0A9C009F0AAC00AF0ABC00BF0000EA2
:100318000C6E800E0D6E3F0E0E6EFDEC06F009C0E1
:10032800A9F00AC0AAF00BC0ABF024D0000E016EF1
:10033800000E026E000E036EA9C004F0AAC005F0FC
:10034800ABC006F0A2EC0FF0D8B014D0A9C015F0DD
:10035800AAC016F0ABC017F0000E186E800E196E0A
:100368003F0E1A6EA9EC16F015C0A9F016C0AAF037
:1003780017C0ABF0AFC027F0B0C028F0B1C029F06B
:10038800ACC02AF0ADC02BF0AEC02CF0A9C02DF047
:10039800AAC02EF0ABC02FF03DEC04F0040E0C6E9A
:1003A8005E5004EC12F03C0E116E000E126EA9C0E5
:1003B80001F0AAC002F0ABC003F0C6EC0AF001C01D
:1003C80013F002C014F0000E166E0A0E156E67ECDC
:1003D80016F03C0E0E6E000E0F6E02EC15F0E70ED6
:1003E8000E6EFF0E0F6E02EC15F0120000F01200F8
:1003F8000001C951000AD8B461D6010AD8B4E6D6BA
:10040800030AD8B46BD7F2D74650D8B405D0030E38
:10041800C96105D0C92B03D0C951D8A4C907C4ECF8
:1004280013F01200B3EC17F0000E00016B6FBA5115
:10043800BEEC10F09A0E00016D6FFF0E6E6F53EC5C
:1004480014F0000E00016B6F5E50FC0FBEEC10F054
:10045800CD0E00016D6FFF0E6E6F53EC14F0000EA1
:100468000001766F000E756F000E786F0C0E776FB7
:10047800000E7A6F7F0E796F000E7C6F0C0E7B6F0B
:1004880023EC06F0F80E5E240001756F766BFF0E04
:100498007623000E786F000E776FF80E5E24796F62
:1004A8007A6BFF0E7A23000E7C6F3F0E7B6F23EC76
:1004B80006F0020E00016B6FBA51BEEC10F0BE0ED2
:1004C80000016D6FFF0E6E6F53EC14F0020E000109
:1004D8006B6F5E50BEEC10F0930E0001706F000E53
:1004E800716FC7C072F0736B000E756F0A0E746F70
:1004F80023EC16F0930E00016D6F000E6E6F53EC37
:1005080014F0FB0E00016D6FFF0E6E6F53EC14F0CC
:10051800030E00016B6FBA51BEEC10F03E0E0001E5
:100528006D6FFF0E6E6F53EC14F0030E00016B6FCE
:100538005E50BEEC10F0930E0001706F000E716FEC
:10054800B5C060F0B6C061F0B7C062F0CFEC09F09A
:1005580060C072F061C073F0000E0001756F0A0E82
:10056800746F23EC16F0930E00016D6F000E6E6F22
:1005780053EC14F0E60E00016D6FFF0E6E6F53EC36
:1005880014F0040E00016B6FBA51BEEC10F07B0E34
:1005980000016D6FFF0E6E6F53EC14F0040E000136
:1005A8006B6F5E50BEEC10F0EF0E00016D6FFF0E2A
:1005B8006E6F53EC14F0050E00016B6FBA51BEEC70
:1005C80010F0AD0E00016D6FFF0E6E6F53EC14F05E
:1005D800050E00016B6F5E50BEEC10F0EF0E0001CF
:1005E8006D6FFF0E6E6F53EC14F0060E00016B6F0B
:1005F800BA51BEEC10F0900E00016D6FFF0E6E6FD9
:1006080053EC14F0060E00016B6F5E50BEEC10F058
:10061800F30E00016D6FFF0E6E6F53EC14F0070EB2
:1006280000016B6FBA51BEEC10F0A40E00016D6FA3
:10063800FF0E6E6F53EC14F0070E00016B6F5E50E7
:10064800BEEC10F0F70E00016D6FFF0E6E6F53ECED
:1006580014F01200000E00016B6F7F0E6C6F430EDA
:100668006D6F86C068F087C069F088C06AF0BAEC20
:100678000BF068C07AF069C07BF06AC07CF0B8C043
:1006880068F0B9C069F05EEC17F068C077F069C02F
:1006980078F06AC079F04BEC0AF077C098F078C02F
:1006A80099F079C09AF098C077F099C078F09AC01C
:1006B80079F0000E00016B6FC80E6C6F420E6D6F03
:1006C800B5C068F0B6C069F0B7C06AF0BAEC0BF014
:1006D80068C07AF069C07BF06AC07CF04BEC0AF025
:1006E80077C08FF078C090F079C091F0000E0001CB
:1006F8006B6F7F0E6C6F430E6D6F89C068F08AC098
:1007080069F08BC06AF0BAEC0BF068C07AF069C087
:100718007BF06AC07CF0B8C068F0B9C069F05EECE4
:1007280017F068C077F069C078F06AC079F04BECD0
:100738000AF077C098F078C099F079C09AF098C01C
:1007480077F099C078F09AC079F0000E00016B6FCD
:10075800C80E6C6F420E6D6FB5C068F0B6C069F018
:10076800B7C06AF0BAEC0BF068C07AF069C07BF0E9
:100778006AC07CF04BEC0AF077C092F078C093F036
:1007880079C094F0000E00016B6F7F0E6C6F430E02
:100798006D6F8CC068F08DC069F08EC06AF0BAECDD
:1007A8000BF068C07AF069C07BF06AC07CF0B8C012
:1007B80068F0B9C069F05EEC17F068C077F069C0FE
:1007C80078F06AC079F04BEC0AF077C098F078C0FE
:1007D80099F079C09AF098C077F099C078F09AC0EB
:1007E80079F0000E00016B6FC80E6C6F420E6D6FD2
:1007F800B5C068F0B6C069F0B7C06AF0BAEC0BF0E3
:1008080068C07AF069C07BF06AC07CF04BEC0AF0F3
:1008180077C095F078C096F079C097F08FC060F0F7
:1008280090C061F091C062F0CFEC09F060C06FF049
:1008380061C070F023EC17F095C060F096C061F0CD
:1008480097C062F0CFEC09F060C06FF061C070F043
:1008580005EC17F092C060F093C061F094C062F0AC
:10086800CFEC09F060C06FF061C070F0E7EC16F0F3
:100878001200000E0C6E7F0E0D6E430E0E6E27C01A
:1008880009F028C00AF029C00BF02EEC0CF009C0C2
:100898001BF00AC01CF00BC01DF0B8C009F0B9C0AD
:1008A8000AF097EC17F009C018F00AC019F00BC04D
:1008B8001AF040EC0BF018C039F019C03AF01AC021
:1008C8003BF039C018F03AC019F03BC01AF0000EDE
:1008D8000C6EC80E0D6E420E0E6EB5C009F0B6C095
:1008E8000AF0B7C00BF02EEC0CF009C01BF00AC0E0
:1008F8001CF00BC01DF040EC0BF018C030F019C014
:1009080031F01AC032F0000E0C6E7F0E0D6E430EE1
:100918000E6E2AC009F02BC00AF02CC00BF02EEC8A
:100928000CF009C01BF00AC01CF00BC01DF0B8C0C9
:1009380009F0B9C00AF097EC17F009C018F00AC01E
:1009480019F00BC01AF040EC0BF018C039F019C0C0
:100958003AF01AC03BF039C018F03AC019F03BC061
:100968001AF0000E0C6EC80E0D6E420E0E6EB5C05B
:1009780009F0B6C00AF0B7C00BF02EEC0CF009C0B5
:100988001BF00AC01CF00BC01DF040EC0BF018C0A7
:1009980033F019C034F01AC035F0000E0C6E7F0E1B
:1009A8000D6E430E0E6E2DC009F02EC00AF02FC03A
:1009B8000BF02EEC0CF009C01BF00AC01CF00BC0A9
:1009C8001DF0B8C009F0B9C00AF097EC17F009C0DB
:1009D80018F00AC019F00BC01AF040EC0BF018C060
:1009E80039F019C03AF01AC03BF039C018F03AC0D3
:1009F80019F03BC01AF0000E0C6EC80E0D6E420EB8
:100A08000E6EB5C009F0B6C00AF0B7C00BF02EECF8
:100A18000CF009C01BF00AC01CF00BC01DF040EC24
:100A28000BF018C036F019C037F01AC038F030C0D3
:100A380001F031C002F032C003F0C6EC0AF001C088
:100A480010F002C011F019EC18F036C001F037C0F0
:100A580002F038C003F0C6EC0AF001C010F002C082
:100A680011F000EC18F033C001F034C002F035C0CA
:100A780003F0C6EC0AF001C010F002C011F0E7EC78
:100A880017F01200B3EC17F0000E00016B6F000EA8
:100A9800BEEC10F0630E00016D6FFF0E6E6F53EC2D
:100AA80014F0000E0001766F000E756F000E786F5F
:100AB800090E776F000E7A6F7F0E796F000E7C6FCC
:100AC800090E7B6F23EC06F0020E00016B6FBD511F
:100AD800BEEC10F0DB0E00016D6FFF0E6E6F53EC75
:100AE80014F0020E00016B6F5E50BEEC10F0930E16
:100AF8000001706F000E716FAFC060F0B0C061F0A0
:100B0800B1C062F0CFEC09F060C072F061C073F060
:100B1800000E0001756F0A0E746F23EC16F0930E29
:100B280000016D6F000E6E6F53EC14F0E70E0001BC
:100B38006D6FFF0E6E6F53EC14F0030E00016B6FB8
:100B4800BD51BEEC10F0B60E00016D6FFF0E6E6F5A
:100B580053EC14F0030E00016B6F5E50BEEC10F006
:100B6800930E0001706F000E716FACC060F0ADC0E5
:100B780061F0AEC062F0CFEC09F060C072F061C005
:100B880073F0000E0001756F0A0E746F23EC16F0F7
:100B9800930E00016D6F000E6E6F53EC14F0E70EAC
:100BA80000016D6FFF0E6E6F53EC14F0040E000120
:100BB8006B6FBD51BEEC10F0C60E00016D6FFF0EDD
:100BC8006E6F53EC14F0040E00016B6F5E50BEECB8
:100BD80010F0930E0001706F000E716FA9C060F0E5
:100BE800AAC061F0ABC062F0CFEC09F060C072F04F
:100BF80061C073F0000E0001756F0A0E746F23EC6C
:100C080016F0930E00016D6F000E6E6F53EC14F02A
:100C1800E70E00016D6FFF0E6E6F53EC14F0060EB9
:100C280000016B6FBD51BEEC10F0CEEC17F0E10E79
:100C380000016D6FFF0E6E6F53EC14F0120075C05B
:100C48007DF076C07EF000017D1F7E1F7D4B7E2BE0
:100C580079517D258F6F7A517E21906F77C07DF015
:100C680078C07EF07D1F7E1F7D4B7E2B7B517D25BE
:100C7800916F7C517E21926FD8908F35876F903518
:100C8800886FD8909135896F92358A6F75C08BF0CF
:100C980076C08CF077C08DF078C08EF0000E846F2F
:100CA800010E836F000E866F010E856F90AF0AD01C
:100CB800836984698F6D901FD8B0902B876D881FCA
:100CC800D8B0882B92AF0AD085698669916D921F3A
:100CD800D8B0922B896D8A1FD8B08A2B77C06EF056
:100CE800370EF66EFF0EF76E000EF86E0800F5CFA1
:100CF8006FF0755164EC0EF000018F519011D8A47B
:100D080004D091519211D8B4120091518F5D905135
:100D1800800A7D6F9251800A7D59D8A035D0000E87
:100D2800806F000E7F6F83518B2784518C238951EC
:100D38007F278A5180237F518F5D9051800A7D6F74
:100D48008051800A7D59D8B008D085518D278651A9
:100D58008E2387517F5F8851805B8DC06EF0370E80
:100D6800F66EFF0EF76E000EF86E0800F5CF6FF006
:100D78008B5164EC0EF0000179518B19D4E17A5152
:100D88008C19D8B41200CFD7000E826F000E816F75
:100D980085518D2786518E2387518127885182233B
:100DA8008151915D9251800A7D6F8251800A7D59EF
:100DB800D8B008D083518B2784518C238951815F07
:100DC8008A51825B8DC06EF0370EF66EFF0EF76E9D
:100DD800000EF86E0800F5CF6FF08B5164EC0EF042
:100DE80000017B518D19D4E17C518E19D8B41200C1
:100DF800CFD70BC00FF0106A116A0A340F3601E31F
:100E080010800F50146E0EC00FF0106A116A0D3466
:100E18000F3601E310800F50136E1450D8B40BD066
:100E28001350145CD8B00ED01450000813240F6E61
:100E3800180E0F6407D00CC009F00DC00AF00EC0E0
:100E48000BF012001350D8B40BD01450135CD8B068
:100E58000ED01350000814240F6E180E0F6407D01C
:100E680009C009F00AC00AF00BC00BF01200060E08
:100E7800126E0BBE128E0EBE128C0A8EFF0E091653
:100E8800FF0E0A16000E0B160D8EFF0E0C16FF0E27
:100E98000D16000E0E161350145CD8B01BD0D89047
:100EA8000C360D360E36130614501318D8B40DD060
:100EB800120612C00FF0070E0F16D8B406D0EFD7DF
:100EC800D8900B320A320932142A13501418D8B4A5
:100ED8001FD0F6D71450135CD8B01AD0D890093662
:100EE8000A360B36140614501318D8B40DD012064F
:100EF80012C00FF0070E0F16D8B406D0EFD7D8904F
:100F08000E320D320C32132A13501418D8A4F7D706
:100F180012AE0CD0FF0E091AFF0E0A1AFF0E0B1A9A
:100F2800010E0926000E0A22000E0B2212AC0CD06C
:100F3800FF0E0C1AFF0E0D1AFF0E0E1A010E0C26CC
:100F4800000E0D22000E0E22000E126E09500C2605
:100F58000A500D220B500E220EAE0ED0FF0E0C1AA8
:100F6800FF0E0D1AFF0E0E1A010E0C26000E0D2292
:100F7800000E0E22010E126E0CC001F00DC002F020
:100F88000EC003F014C004F012C005F064EC0DF0BC
:100F980001C009F002C00AF003C00BF0120081B4CE
:100FA80012001A0E0001A76FF80EE82EFED7A72F21
:100FB800FCD700F081B41200B5D00001CC51D8B4F0
:100FC8004FD062D0010E0001CC6F000ECB6F3FEC0A
:100FD80009F0A8D0020E0001CC6F000ECA6FA1EC78
:100FE8000CF0AFC086F0B0C087F0B1C088F0ACC0DC
:100FF80089F0ADC08AF0AEC08BF0A9C08CF0AAC051
:101008008DF0ABC08EF02EEC03F08CD0030E0001F7
:10101800CC6F000EC96FAFC086F0B0C087F0B1C00A
:1010280088F0ACC089F0ADC08AF0AEC08BF0A9C022
:101038008CF0AAC08DF0ABC08EF02EEC03F046EC1D
:1010480005F070D0040E03D0050E01D0060E000185
:10105800CC6F68D0000E0001CC6F16EC02F062D0A5
:101068005D50020AD8B4AED7010AD8B4B3D7070A7C
:10107800D8B4CCD7010AD8B4E5D7030AD8B4E4D792
:10108800010AD8B4E3D7E6D70001CC05D8A40BD021
:10109800020ECB19D8A43AD0000ECC6F16EC02F091
:1010A80041D0C86F3FD0020ECC19D8A40ED0CA05C3
:1010B800D8A42CD0000ECC6F000E706F000E6F6F8E
:1010C80023EC17F016EC02F02DD0030ECC19D8A49F
:1010D80025D0030EC919D8A419D0000ECC6F000E64
:1010E800866F000E876F000E886F000E896F000EE6
:1010F8008A6F000E8B6F000E8C6F000E8D6F000EC6
:101108008E6F2EEC03F016EC02F00CD00001C851E3
:10111800D8A402D0010EC5D7000EC3D7000ECC6FDD
:1011280016EC02F081A449D791EC13F01200466E38
:101138000001C851D8A48BD090D04650D8B425D03F
:10114800B5C001F0B6C002F0B7C003F0000E046EDF
:10115800C80E056E420E066EA2EC0FF0D8B039D05C
:10116800B5C009F0B6C00AF0B7C00BF0000E0C6E9F
:10117800800E0D6E3F0E0E6EFDEC06F009C0B5F048
:101188000AC0B6F00BC0B7F024D0000E016E000EF6
:10119800026E000E036EB5C004F0B6C005F0B7C00D
:1011A80006F0A2EC0FF0D8B014D0B5C015F0B6C058
:1011B80016F0B7C017F0000E186E800E196E3F0EAD
:1011C8001A6EA9EC16F015C0B5F016C0B6F017C027
:1011D800B7F0AFC027F0B0C028F0B1C029F0ACC05C
:1011E8002AF0ADC02BF0AEC02CF0A9C02DF0AAC0DB
:1011F8002EF0ABC02FF03DEC04F0020E0C6E5E50EA
:1012080004EC12F03C0E116E000E126EB5C001F027
:10121800B6C002F0B7C003F0C6EC0AF001C013F084
:1012280002C014F0000E166E0A0E156E67EC16F06A
:101238003C0E0E6E000E0F6E02EC15F0E60E0E6EF2
:10124800FF0E0F6E02EC15F0120000F01200000104
:10125800CA51000AD8B471D7F8D74650D8B405D0C7
:10126800CA51D8A405D0CA2B03D0CA51D8A4CA07DA
:10127800C4EC13F01200B3EC17F0000E00016B6F12
:10128800000EBEEC10F0860E00016D6FFF0E6E6F43
:1012980053EC14F0000E0001766F000E756F000E0F
:1012A800786F090E776F000E7A6F7F0E796F000ED8
:1012B8007C6F090E7B6F23EC06F0020E00016B6F4A
:1012C800BD51BEEC10F0700E00016D6FFF0E6E6F19
:1012D80053EC14F0020E00016B6F5E50BEEC10F080
:1012E800930E0001706F000E716FC7C072F0736BC0
:1012F800000E756F0A0E746F23EC16F0930E000142
:101308006D6F000E6E6F53EC14F0D40E00016D6F0C
:10131800FF0E6E6F53EC14F0040E00016B6FBD519D
:10132800BEEC10F0490E00016D6FFF0E6E6F53ECAE
:1013380014F0040E00016B6F5E50BEEC10F0930EBB
:101348000001706F000E716FC6C072F0736B000EF3
:10135800756F0A0E746F23EC16F0930E00016D6F13
:10136800000E6E6F53EC14F0D40E00016D6FFF0E7B
:101378006E6F53EC14F0060E00016B6FBD51BEEC9E
:1013880010F0CEEC17F0E10E00016D6FFF0E6E6FDE
:1013980053EC14F0120062C064F00001656B666BD8
:1013A8006135643701E3658164516E6F6E51D8A46D
:1013B80009D0000E606F000E616F000E626F000EA4
:1013C800636F1200170E646F60C065F061C066F04D
:1013D80062C067F06429686F04D0D89067336633B9
:1013E8006533682FFAD700016551696F618FFF0E69
:1013F8006017FF0E6117000E621760516A6F615126
:101408006B6F62516C6F6D6B8E0E6E5F6EAF16D028
:101418006E51800A8F0FD8B009D0000E606F000E91
:10142800616F000E626F000E636F1200D8906D330B
:101438006C336B336A336E3FF9D715D0170E6E6570
:101448000FD0000E606F000E616F000E626F000E0D
:10145800636F1200D8906A376B376C376D376E0739
:101468006E51D8A4F7D76951D8B408D06D1F6C1F36
:101478006B1F6A6D000E6B236C236D236AC060F0CE
:101488006BC061F06CC062F06DC063F0120079C08F
:101498007DF000017E6B7F6B78357D3701E37E81BF
:1014A8007D51806F8051D8A407D0000E776F000E51
:1014B800786F000E796F12007CC07DF07E6B7F6BB9
:1014C8007B357D3701E37E817D51856F8551D8A4B9
:1014D80007D0000E776F000E786F000E796F12003C
:1014E80085517B0F802779C085F07C51851B800E44
:1014F8008517788F7B8FFF0E7A17FF0E7B17000EEC
:101508007C17000E816F000E826F000E836F070E2E
:10151800846F77A106D07A5181277B5182237C5131
:101528008323D890793378337733D8907A377B37D9
:101538007C37842FEED7090E846F77A106D07A51B5
:1015480081277B5182237C518323D8907933783348
:101558007733D890833382338133842FEED781C099
:1015680060F082C061F083C062F080C063F085C023
:1015780064F00CEC0DF060C077F061C078F062C0E8
:1015880079F0120003C005F0066A076A02340536CE
:1015980001E3068005500F6E0F50D8A409D0000E45
:1015A800016E000E026E000E036E000E046E120035
:1015B800170E056E01C006F002C007F003C008F060
:1015C8000528096E04D0D890083207320632092E51
:1015D800FAD706500A6E028EFF0E0116FF0E02168B
:1015E800000E031601500B6E02500C6E03500D6E68
:1015F8000E6A8E0E0F5E0FAE16D00F50800A8F0F38
:10160800D8B009D0000E016E000E026E000E036EF7
:10161800000E046E1200D8900E320D320C320B32CE
:101628000F3EF9D715D0170E0F640FD0000E016EBC
:10163800000E026E000E036E000E046E1200D890AB
:101648000B360C360D360E360F060F50D8A4F7D7CA
:101658000A50D8B408D00E1E0D1E0C1E0B6C000EBE
:101668000C220D220E220BC001F00CC002F00DC09E
:1016780003F00EC004F012001AC01EF01F6A206AA0
:1016880019341E3601E31F801E50216E2150D8A444
:1016980007D0000E186E000E196E000E1A6E12009A
:1016A8001DC01EF01F6A206A1C341E3601E31F800D
:1016B8001E50266E2650D8A407D0000E186E000EB5
:1016C800196E000E1A6E120026507B0F21261AC0C2
:1016D80026F01D50261A800E2616198E1C8EFF0E17
:1016E8001B16FF0E1C16000E1D16000E226E000E95
:1016F800236E000E246E070E256E18A006D01B5010
:1017080022261C5023221D502422D8901A32193226
:101718001832D8901B361C361D36252EEED7090EEA
:10172800256E18A006D01B5022261C5023221D50BF
:101738002422D8901A3219321832D89024322332FF
:101748002232252EEED722C001F023C002F024C099
:1017580003F021C004F026C005F064EC0DF001C0D0
:1017680018F002C019F003C01AF012006AC06EF037
:1017780000016F6B706B69356E3701E36F816E51D5
:10178800756F7551D8A407D0000E686F000E696F89
:10179800000E6A6F12006DC06EF06F6B706B6C3567
:1017A8006E3701E36F816E51766F7651D8A407D0FA
:1017B800000E686F000E696F000E6A6F1200000E4F
:1017C800726F000E736F000E746F7651890F755F1C
:1017D8006AC076F06D51761B800E7617698FFF0E02
:1017E8006817FF0E6917000E6A176C8FFF0E6B17CC
:1017F800FF0E6C17000E6D17180E716FD8907237A8
:10180800733774376B51685D6C5169596D516A59FA
:10181800D8A007D06B51685F6C51695B6D516A5BEA
:101828007281D890683769376A37712FE7D772C0E5
:1018380060F073C061F074C062F075C063F076C088
:1018480064F00CEC0DF060C068F061C069F062C033
:101858006AF012000BC00FF0106A116A0A340F36D2
:1018680001E310800F50166E1650D8A407D0000E52
:10187800096E000E0A6E000E0B6E12000EC00FF0FD
:10188800106A116A0D340F3601E310800F50176E7D
:101898001750D8A407D0000E096E000E0A6E000E6D
:1018A8000B6E1200000E136E000E146E000E156EF5
:1018B8001750890F165E0BC017F00E50171A800EBE
:1018C80017160A8EFF0E0916FF0E0A16000E0B16C3
:1018D8000D8EFF0E0C16FF0E0D16000E0E16180EAE
:1018E800126ED8901336143615360C50095C0D500C
:1018F8000A580E500B58D8A007D00C50095E0D504E
:101908000A5A0E500B5A1380D89009360A360B36ED
:10191800122EE7D713C001F014C002F015C003F06F
:1019280016C004F017C005F064EC0DF001C009F012
:1019380002C00AF003C00BF01200B3EC17F0000E5F
:1019480000016B6F000EBEEC10F0380E00016D6FD9
:10195800FF0E6E6F53EC14F0000E0001766F000E50
:10196800756F000E786F090E776F000E7A6F7F0E15
:10197800796F000E7C6F090E7B6F23EC06F0020E68
:1019880000016B6FBD51BEEC10F0560E00016D6F7B
:10199800FF0E6E6F53EC14F0020E00016B6F5E5079
:1019A800BEEC10F0930E0001706F000E716FB5C0A1
:1019B80060F0B6C061F0B7C062F0CFEC09F060C06B
:1019C80072F061C073F0000E0001756F0A0E746F3B
:1019D80023EC16F0930E00016D6F000E6E6F53EC42
:1019E80014F0EB0E00016D6FFF0E6E6F53EC14F0E8
:1019F800060E00016B6FBD51BEEC10F0CEEC17F077
:101A0800E10E00016D6FFF0E6E6F53EC14F01200C3
:101A180000016351D8B405D0605161116211D8A496
:101A28000CD0000E606F000E616F000E626F120026
:101A3800632BD890623361336033000E6015656F95
:101A4800000E6115666FFE0E6215676F65516611AF
:101A58006711D8B40CD0ECD7632B010E6027000EA9
:101A68006123000E6223D890623361336033000E25
:101A78006015656F000E6115666FFF0E6215676F62
:101A8800655166116711D8B406D0E6D76307D890B8
:101A980060376137623761BF03D0020E6361F6D7E2
:101AA80063A1619FD8906333635162136451D8A4D2
:101AB800628F60C060F061C061F062C062F01200C5
:101AC8000450D8B405D0015002100310D8A40CD08B
:101AD800000E016E000E026E000E036E1200042A44
:101AE800D890033202320132000E0114066E000E45
:101AF8000214076EFE0E0314086E06500710081035
:101B0800D8B40CD0ECD7042A010E0126000E02220C
:101B1800000E0322D890033202320132000E011463
:101B2800066E000E0214076EFF0E0314086E0650B0
:101B380007100810D8B406D0E6D70406D8900136A6
:101B48000236033602BE03D0020E0460F6D704A0A4
:101B5800029ED8900432045003120550D8A4038E74
:101B680001C001F002C002F003C003F0120069C016
:101B78006DF06AC06EF06DC060F06EC061F06BC051
:101B880062F06CC063F058EC15F060C06DF061C095
:101B98006EF00001674B682B6D516E11D8A4EBD71E
:101BA80067C0D9FF68C0DAFF000EDF6E6707D8A0EC
:101BB800680769C060F06AC061F06BC062F06CC011
:101BC80063F045EC16F0000160516F6F69C060F07A
:101BD8006AC061F06BC062F06CC063F058EC15F03D
:101BE80060C069F061C06AF0090E00016F6502D03B
:101BF800070E6F27300E6F2767C0D9FF68C0DAFF5E
:101C08006FC0DFFF6707D8A0680769516A11D8A4B9
:101C1800D0D7674B682B1200000E00016E6F020EC2
:101C28006B6FBB510008BD25BEEC10F0000E000123
:101C38006E6F05D0000E41EC12F000016E2BBB5107
:101C48006E5DD8A0F7D7030E6B6FBB510008BD259A
:101C5800BEEC10F0000E00016E6F05D0000E41ECD6
:101C680012F000016E2BBB516E5DD8A0F7D7040EA1
:101C78006B6FBB510008BD25BEEC10F0000E0001D3
:101C88006E6F05D0000E41EC12F000016E2BBB51B7
:101C98006E5DD8A0F7D7060E6B6FBB510008BD2547
:101CA800BEEC10F0000E00016E6F05D0000E41EC86
:101CB80012F000016E2BBB516E5DD8B01200F6D742
:101CC8000001736F6EC060F00001616B000E636FFE
:101CD800080E626F02EC11F000016051746F74C05D
:101CE8006BF07351BEEC10F07DEC12F00001726FD6
:101CF8006EC060F0616B000E636F080E626F02ECDD
:101D080011F000016051746F74C06BF07351BEEC38
:101D180010F07DEC12F00001726F6EC060F0616B24
:101D2800000E636F080E626F02EC11F00001605143
:101D3800746F74C06BF07351BEEC10F06EC070F02D
:101D4800070E00017017010E716F702B02D0D8902A
:101D58007137702FFCD7000171517213725141EC29
:101D680012F012000AC00EF00BC00FF00EC001F006
:101D78000FC002F00CC003F00DC004F0ACEC15F07D
:101D880001C00EF002C00FF0084A092A0E500F10C9
:101D9800D8A4ECD708C0D9FF09C0DAFF000EDF6E5F
:101DA8000806D8A009060AC001F00BC002F00CC052
:101DB80003F00DC004F088EC16F00150106E0AC054
:101DC80001F00BC002F00CC003F00DC004F0ACEC45
:101DD80015F001C00AF002C00BF0090E106402D021
:101DE800070E1026300E102608C0D9FF09C0DAFFEA
:101DF80010C0DFFF0806D8A009060A500B10D8A4A7
:101E0800D2D7084A092A1200000E0F6E020E0C6E75
:101E18000001BB510008BD2504EC12F0000E0F6E46
:101E280004D0000E29EC13F00F2A0001BB510F5CFF
:101E3800D8A0F7D7030E0C6EBB510008BD2504ECE3
:101E480012F0000E0F6E04D0000E29EC13F00F2ACA
:101E58000001BB510F5CD8A0F7D7040E0C6EBB5124
:101E68000008BD2504EC12F0000E0F6E04D0000E21
:101E780029EC13F00F2A0001BB510F5CD8A0F7D74B
:101E8800060E0C6EBB510008BD2504EC12F0000EC6
:101E98000F6E04D0000E29EC13F00F2A0001BB517D
:101EA8000F5CD8B01200F6D7000E81BA010E496E49
:101EB800000E81B8010E486E495049244810476EFB
:101EC800030E0001C519D8A433D04950D8A402D0B4
:101ED800010E01D0000E4A6E14D04A50F9EC18F0E9
:101EE80027D04A5078EC10F023D04A509BEC08F0E9
:101EF8001FD04A505CEC00F01BD04A50F9EC18F0A7
:101F080017D00001CC51000AD8B4E7D7010AD8B4D9
:101F1800E8D7030AD8B4E9D7010AD8B4EAD7070A38
:101F2800D8B406D0010AD8B403D0030AD8A4E5D798
:101F380047C0C5F081CF81FFF290120003AE16D0E2
:101F480001C007F002C008F003C009F0071E081E10
:101F5800091E072A000E08220922000E0724016E16
:101F6800000E0820026E800E0920036E06AE16D001
:101F780004C007F005C008F006C009F0071E081ED7
:101F8800091E072A000E08220922000E0724046EE3
:101F9800000E0820056E800E0920066E000E011A3C
:101FA800000E021A800E031A000E041A000E051AFB
:101FB800800E061A0450015C05500258065003585A
:101FC800D8B002D0D8901200D880120037D0020EB4
:101FD80000016B6FBB510008BD25BEEC10F01FEC73
:101FE80019F01200030E00016B6FBB510008BD25EC
:101FF800BEEC10F01FEC19F01200040E00016B6F1C
:10200800BB510008BD25BEEC10F01FEC19F0120002
:10201800060E00016B6FBB510008BD25BEEC10F029
:102028001FEC19F01200020E00016B6FBB51000883
:10203800BD25BEEC10F01FEC19F012000001C951CB
:10204800000AD8B4C4D7010AD8B4CCD7030AD8B484
:10205800D4D7010AD8B4DCD7E6D737D0020E0C6E35
:102068000001BB510008BD2504EC12F029EC19F061
:102078001200030E0C6E0001BB510008BD2504ECD4
:1020880012F029EC19F01200040E0C6E0001BB517D
:102098000008BD2504EC12F029EC19F01200060E18
:1020A8000C6E0001BB510008BD2504EC12F029ECB0
:1020B80019F01200020E0C6E0001BB510008BD257C
:1020C80004EC12F029EC19F012000001C951000AC1
:1020D800D8B4C4D7010AD8B4CCD7030AD8B4D4D753
:1020E800010AD8B4DCD7E6D7236E0001C851D8A4BA
:1020F8002DD032D02350D8B405D0C729D8B405D0B4
:10210800C72B03D0C751D8A4C707020E0C6E5E5068
:1021180004EC12F0190E116E000E126EC7C013F007
:10212800146A000E166E0A0E156E67EC16F0190E7C
:102138000E6E000E0F6E02EC15F0D40E0E6EFF0E32
:102148000F6E02EC15F0120000F012000001CB51E6
:10215800000AD8B4CFD7F8D72350D8B405D0020E88
:10216800CB6105D0CB2B03D0CB51D8A4CB07C4EC83
:1021780013F0120000016C6F6CC0C4F06BC0C3F0A8
:10218800000E00016D6F010E6D6501D014D06DC099
:1021980068F0400E7BEC17F06DC068F000016B51E1
:1021A800B8097BEC17F06DC068F0C00E7BEC17F037
:1021B80000016D2BE8D76CC060F0616B000E636F97
:1021C800400E626F02EC11F000016051686F6C51B3
:1021D8003F0B40097BEC17F06CC060F00001616BAD
:1021E800000E636F400E626F02EC11F00001605147
:1021F800686F6B51B8097BEC17F01200000E0001F4
:10220800656F63AF06D0626D631FD8B0632B010E94
:10221800656F61AF06D0606D611FD8B0612B010E8C
:10222800651B000E676F000E666F62516311D8B4AC
:102238001CD0010E646F04D0D89062376337642BCA
:1022480063AFFAD7D890663767376251605D6351DC
:102258006159D8A005D06251605F6351615B6681A6
:10226800D89063336233642FEDD76551D8B404D066
:10227800666D671FD8B0672B66C060F067C061F0F5
:102288001200000E066E04AE06D0036C041ED8B011
:10229800042A010E066E02AE06D0016C021ED8B0EA
:1022A800022A010E061A000E086E000E076E035071
:1022B8000410D8B41CD0010E056E04D0D890033693
:1022C8000436052A04AEFAD7D890073608360350E4
:1022D800015C04500258D8A005D00350015E045098
:1022E800025A0780D89004320332052EEDD70650E3
:1022F800D8B404D0076C081ED8B0082A07C001F06B
:1023080008C002F01200000E00016E6F020E6B6F23
:10231800BB510008BD25BEEC10F0000E00016E6F29
:1023280005D0000E41EC12F000016E2BBB516E5D22
:10233800D8A0F7D7040E6B6FBB510008BD25BEECC3
:1023480010F0000E00016E6F05D0000E41EC12F087
:1023580000016E2BBB516E5DD8A0F7D7060E6B6FD0
:10236800BB510008BD25BEEC10F0000E00016E6FD9
:1023780005D0000E41EC12F000016E2BBB516E5DD2
:10238800D8B01200F6D7000E0F6E020E0C6E0001C8
:10239800BB510008BD2504EC12F0000E0F6E04D0EE
:1023A800000E29EC13F00F2A0001BB510F5CD8A0D6
:1023B800F7D7040E0C6EBB510008BD2504EC12F0D3
:1023C800000E0F6E04D0000E29EC13F00F2A000146
:1023D800BB510F5CD8A0F7D7060E0C6EBB51000896
:1023E800BD2504EC12F0000E0F6E04D0000E29EC8F
:1023F80013F00F2A0001BB510F5CD8B01200F6D7BA
:102408000D6E0DC0C4F00CC0C3F0000E0E6E010EB0
:102418000E6401D012D00EC009F0400E32EC18F054
:102428000EC009F00C50B80932EC18F00EC009F0D3
:10243800C00E32EC18F00E2AEAD70DC001F0026A7D
:10244800000E046E400E036E45EC11F00150096E4B
:102458000D503F0B400932EC18F00DC001F0026A34
:10246800000E046E400E036E45EC11F00150096E2B
:102478000C50B80932EC18F012000001696FC4C0A2
:1024880060F00001616B000E636F400E626F02EC3A
:1024980011F0000160514AEC18F00001686F68BF44
:1024A800EED7000E956E8092808469C083FFC4C009
:1024B80060F0616B000E636F400E626F02EC11F00A
:1024C8000001605160EC18F0808667EC19F0809686
:1024D800C4C060F00001616B000E636F400E626F54
:1024E80002EC11F00001605175EC18F00001C42BEA
:1024F8001200C4C060F00001616B000E636F400EF3
:10250800626F02EC11F0000160514AEC18F0000112
:10251800686F68BFEED79568060E8012C4C060F079
:10252800616B000E636F400E626F02EC11F00001E8
:10253800605160EC18F0808667EC19F083CF69F081
:102548008096C4C060F00001616B000E636F400E9E
:10255800626F02EC11F00001605175EC18F0000197
:10256800C42B695112002CD0020E00016B6FBB51B5
:102578000008BD25BEEC10F01FEC19F01200040E87
:1025880000016B6FBB510008BD25BEEC10F01FECBD
:1025980019F01200060E00016B6FBB510008BD2533
:1025A800BEEC10F01FEC19F01200020E00016B6F68
:1025B800BB510008BD25BEEC10F01FEC19F012004D
:1025C8000001CB51000AD8B4CFD7010AD8B4D7D765
:1025D800030AD8B4DFD7E9D72CD0020E0C6E00015D
:1025E800BB510008BD2504EC12F029EC19F01200CB
:1025F800040E0C6E0001BB510008BD2504EC12F05E
:1026080029EC19F01200060E0C6E0001BB510008EF
:10261800BD2504EC12F029EC19F01200020E0C6E24
:102628000001BB510008BD2504EC12F029EC19F09B
:1026380012000001CB51000AD8B4CFD7010AD8B490
:10264800D7D7030AD8B4DFD7E9D70A6EC4C001F0D8
:10265800026A000E046E400E036E45EC11F0015044
:10266800C5EC18F0096E09BEF1D7000E956E809280
:1026780080840AC083FFC4C001F0026A000E046EA1
:10268800400E036E45EC11F001509FEC18F0808667
:1026980069EC19F08096C4C001F0026A000E046E5D
:1026A800400E036E45EC11F00150B2EC18F0000139
:1026B800C42B1200D7EC18F0F28EF28C000E000139
:1026C800706F320E6F6F23EC17F0000E0001706F01
:1026D800000E6F6F05EC17F0000E0001706F320EE0
:1026E8006F6FE7EC16F08D821A0E0001A86FF80ED6
:1026F800E82EFED7A82FFCD700F0E8EC18F0B3ECD2
:1027080017F016EC02F0000E0001CC6F020E5D6EA1
:1027180091EC13F0D3EC07F0FDD723D0F7EC13F0CE
:102728005DC06BF0000EBEEC10F01FEC19F012004B
:1027380087EC11F0B7EC12F01200ABEC14F0D7EC08
:1027480014F0120010EC0EF0EAEC0FF01200F7ECA7
:1027580013F05DC06BF0000EBEEC10F01FEC19F02A
:1027680012000001CC51000AD8B4D8D7010AD8B455
:10277800DFD7030AD8B4E1D7010AD8B4E3D7E7D73B
:1027880023D026EC14F05DC00CF0000E04EC12F01F
:1027980029EC19F01200C7EC11F0F0EC12F012005D
:1027A80082EC15F02DEC15F0120008EC0FF031EC6E
:1027B80010F0120026EC14F05DC00CF0000E04ECD2
:1027C80012F029EC19F012000001CC51000AD8B41B
:1027D800D8D7010AD8B4DFD7030AD8B4E1D7010A99
:1027E800D8B4E3D7E7D7000E0001766F070E7665F9
:1027F80001D0120076C06BF0000EBEEC10F0000E97
:102808000001756F05D0000E41EC12F00001752B28
:10281800FF0E6E6FFF0E6F6FBA51706F716B6E5156
:1028280070276F5171237551726F736B7051725DA0
:102838007351800A746F7151800A7459D8A0E3D714
:10284800762BD4D7000E176E070E176401D012002E
:1028580017C00CF0000E04EC12F0000E166E04D037
:10286800000E29EC13F0162AFF0E0F6EFF0E106EE5
:102878000001BA51116E126A0F501126105012221F
:102888001650136E146A1150135C1450800A156E9A
:102898001250800A1558D8A0E3D7172AD5D716D0D2
:1028A8006DC0F6FF6EC0F7FF000EF86E0E0EF764EF
:1028B80003D00800F55005D0F6CFE9FFF7CFEAFFBF
:1028C800EF507FEC14F000016D4B6E2B6DC0F6FFDE
:1028D8006EC0F7FF000EF86E0E0EF76403D0080006
:1028E800F55005D0F6CFE9FFF7CFEAFFEF50000922
:1028F800D8B41200D5D700016A6F200E00016A5FB4
:10290800000E6C6F000E6B6F6CBF06D06C511BE134
:10291800050E6B5DD8B017D06A51050D6B51F326C3
:102928006C51F422570EF324F66EFD0EF420F76E68
:10293800F86A000EF8220800F55041EC12F0000188
:102948006B4B6C2BE1D7000E41EC12F01200000E1D
:1029580000016E6F020E6B6FBB510008BD25BEEC07
:1029680010F0000E00016E6F05D0000E41EC12F061
:1029780000016E2BBB516E5DD8A0F7D7060E6B6FAA
:10298800BB510008BD25BEEC10F0000E00016E6FB3
:1029980005D0000E41EC12F000016E2BBB516E5DAC
:1029A800D8B01200F6D721D0020E00016B6FBB51D0
:1029B8000008BD25BEEC10F01FEC19F01200060E41
:1029C80000016B6FBB510008BD25BEEC10F01FEC79
:1029D80019F01200020E00016B6FBB510008BD25F3
:1029E800BEEC10F01FEC19F012000001CA51000AE9
:1029F800D8B4DAD7010AD8B4E2D7ECD715D00EC0CC
:102A0800F6FF0FC0F7FF000EF86E0E0EF76403D046
:102A18000800F55005D0F6CFE9FFF7CFEAFFEF50F1
:102A2800D5EC15F00E4A0F2A0EC0F6FF0FC0F7FFBF
:102A3800000EF86E0E0EF76403D00800F55005D0AE
:102A4800F6CFE9FFF7CFEAFFEF500009D8B412003C
:102A5800D6D721D0020E0C6E0001BB510008BD254F
:102A680004EC12F029EC19F01200060E0C6E0001AD
:102A7800BB510008BD2504EC12F029EC19F0120036
:102A8800020E0C6E0001BB510008BD2504EC12F0CB
:102A980029EC19F012000001CA51000AD8B4DAD79B
:102AA800010AD8B4E2D7ECD7000E0001656F000E1A
:102AB800646F62516311D8B41CD0010E666F04D0E4
:102AC800D89062376337662B63AFFAD7D8906437EC
:102AD80065376251605D63516159D8A005D0625174
:102AE800605F6351615B6481D89063336233662FA2
:102AF800EDD764C060F065C061F01200000E0F6E83
:102B0800020E0C6E0001BB510008BD2504EC12F04A
:102B1800000E0F6E04D0000E29EC13F00F2A0001EE
:102B2800BB510F5CD8A0F7D7060E0C6EBB5100083E
:102B3800BD2504EC12F0000E0F6E04D0000E29EC37
:102B480013F00F2A0001BB510F5CD8B01200F6D762
:102B5800000E066E000E056E03500410D8B41CD08B
:102B6800010E076E04D0D89003360436072A04AE47
:102B7800FAD7D890053606360350015C045002583F
:102B8800D8A005D00350015E0450025A0580D890A1
:102B980004320332072EEDD705C001F006C002F05B
:102BA80012000B6E200E0B5E000E0D6E000E0C6EEA
:102BB8000DBE06D00D501AE1050E0C5CD8B016D02B
:102BC8000B50050D0C50F3260D50F422570EF3242C
:102BD800F66EFD0EF420F76EF86A000EF822080073
:102BE800F55029EC13F00C4A0D2AE2D7000E29EC17
:102BF80013F01200140EF66E320EF76E000EF86E19
:102C080000EEA9F010EE16F00900F5CFEEFFE55042
:102C1800E150FAE1D80EF66E320EF76E000EF86E3D
:102C28000900F5CF5EF000EEBFF00E0EEE6AE80682
:102C3800FDE15D6A5F905F9200015EEF13F070C086
:102C480076F071C077F0000173AF0CD070C0D9FF77
:102C580071C0DAFF2D0EDF6E704B712B726D731F12
:102C6800D8B0732B70C067F071C068F072C069F09B
:102C780073C06AF074C06BF075C06CF0BBEC0DF0FB
:102C88001200000162516311D8B418D0010E646FAC
:102C980004D0D89062376337642B63AFFAD7625198
:102CA800605D63516159D8A004D06251605F63517F
:102CB800615BD89063336233642FF1D760C060F0F2
:102CC80061C061F0120011C017F012C018F014AE04
:102CD8000CD011C0D9FF12C0DAFF2D0EDF6E114AD9
:102CE800122A136C141ED8B0142A11C008F012C08E
:102CF80009F013C00AF014C00BF015C00CF016C090
:102D08000DF0B6EC0EF0120003500410D8B418D031
:102D1800010E056E04D0D89003360436052A04AE99
:102D2800FAD70350015C04500258D8A004D00350CD
:102D3800015E0450025AD89004320332052EF1D7AE
:102D480001C001F002C002F01200185019101A1048
:102D5800D8B406D0000E181A000E191A800E1A1AC6
:102D680015C009F016C00AF017C00BF018C00CF017
:102D780019C00DF01AC00EF0FDEC06F009C015F0F0
:102D88000AC016F00BC017F01200000E8D6E000E70
:102D98008C6E000E896E000E8A6E000E8B6E050E0C
:102DA800966E010E926E93683A0E946E000E956EB2
:102DB800000E0F015D6F000E5C6F000E5B6F5A898D
:102DC8005A8BF28612006FC071F070C072F0000169
:102DD800D89072337133D8907233713371510F01B7
:102DE8004B6F6FC071F0030E00017117713BF00E4D
:102DF80071170F014A51CF0B000171110F014A6F72
:102E080012006FC071F070C072F00001D890723378
:102E18007133D8907233713371510F014E6F6FC097
:102E280071F0030E00017117713BF00E71170F015D
:102E38004D51CF0B000171110F014D6F12006FC082
:102E480071F070C072F00001D89072337133D8906D
:102E58007233713371510F01516F6FC071F0030EEE
:102E680000017117713BF00E71170F015051CF0B14
:102E7800000171110F01506F1200140ED56E0B0E68
:102E8800D76EDB0ED66ED650D7CF62F00001636BDB
:102E980062C063F0626B6211CD6F6351CE6FF294C2
:102EA800F28AD60E606F320E616F57EC19F063EC40
:102EB80019F01200000E00016B6F69AF06D0686D43
:102EC800691FD8B0692B010E6B6F68C060F069C0CC
:102ED80061F0626B8E0E636F6BC064F00CEC0DF0EA
:102EE80060C068F061C069F062C06AF01200000159
:102EF8006A6F000168514AEC18F00001696F69BFF8
:102F0800F8D7000E956EF90E8016685160EC18F02F
:102F18006AC083FF808667EC19F0809600016851CB
:102F280075EC18F01200000E0C6E0AAE06D0096C93
:102F38000A1ED8B00A2A010E0C6E09C001F00AC098
:102F480002F0036A8E0E046E0CC005F064EC0DF0FE
:102F580001C009F002C00AF003C00BF01200000E15
:102F680000016F6F070E6F6501D012006FC06BF024
:102F7800000EBEEC10F0000E00016E6F7F0E6E6545
:102F880001D006D0000E41EC12F000016E2BF6D7EE
:102F98006F2BE8D7040E41EC12F00E0E41EC12F044
:102FA800950E41EC12F0840E41EC12F0840E41ECC7
:102FB80012F0440E41EC12F0380E41EC12F0000E03
:102FC80041EC12F0120010C012F011C013F0D890AA
:102FD80013321232D8901332123212500F014B6F43
:102FE80010C012F0030E1216123AF00E12164A51C1
:102FF800CF0B12104A6F120010C012F011C013F05C
:10300800D89013321232D8901332123212500F0164
:103018004E6F10C012F0030E1216123AF00E12166E
:103028004D51CF0B12104D6F120010C012F011C08D
:1030380013F0D89013321232D89013321232125041
:103048000F01516F10C012F0030E1216123AF00E53
:1030580012165051CF0B1210506F12000B6E095000
:10306800C5EC18F00A6E0ABEFAD7000E956EF90E76
:10307800801609509FEC18F00BC083FF808669EC1E
:1030880019F080960950B2EC18F012000001626F36
:103098009568808280940001625160EC18F0808607
:1030A80067EC19F083CF61F080960001625175ECEE
:1030B80018F00001615112000001606F06D0809A7B
:1030C8001200809C1200809E120000016051000ACC
:1030D800D8B4F5D7010AD8B4F4D7030AD8A4120093
:1030E800F2D70001606F06D0808A1200808C12002F
:1030F800808E120000016051000AD8B4F5D7010A89
:10310800D8B4F4D7030AD8A41200F2D7F294000175
:10311800CE51D76ECDC0D6FFCF51D011D8B4120042
:1031280001D812000500FA6ECF51FD6ED051FE6E27
:10313800FF6AFA501200016E06D0809A1200809C35
:103148001200809E12000150000AD8B4F6D7010A76
:10315800D8B4F5D7030AD8A41200F3D7016E06D065
:10316800808A1200808C1200808E12000150000AA2
:10317800D8B4F6D7010AD8B4F5D7030AD8A41200F0
:10318800F3D7036E95688082809403509FEC18F003
:10319800808669EC19F083CF02F080960350B2EC78
:1031A80018F00250120065EC19F0C9EC16F04EEC5C
:1031B80019F045EC19F015EC19F033EC19F03CEC6A
:1031C80019F041EC17F012005CEC19F0000E000148
:1031D8006B6F020E6B6501D012006BC068F03F0E7A
:1031E8007BEC17F000016B2BF4D7186E1850D8B48D
:1031F80005D0070E5D6007D05D2804D0020E5D641F
:1032080002D05D045D6EC4EC13F01200003343007D
:10321800C842007A43000044000442FF030404410A
:103228000A03020E886EF90EA96E000E876EB79E0D
:1032380061EC19F012007E0E41EC12F03C0E41ECEC
:1032480012F0180E41EC12F012007E0E29EC13F069
:103258003C0E29EC13F0180E29EC13F012003C0E6A
:103268000F014A6F7C0E4B6F000E4C6F998612004F
:103278003C0E0F014D6F7C0E4E6F000E4F6F998400
:1032880012003C0E0F01506F7C0E516F000E526FF2
:1032980099821200600ED36E000ED26E000E9B6EE5
:1032A800000E9A6E120060C0CFF061C0D0F012001C
:1032B800E00E8012110E9216120088841200D58E2C
:1032C8001200D09E120000F0120000F0120012004E
:0132D80050A5
:10FD560000000000000000005F0000000700070030
:10FD6600147F147F14242A7F2A1223130864623610
:10FD7600495522500005030000001C2241000041A5
:10FD8600221C00082A1C2A0808083E0808005030D1
:10FD96000000080808080800303000002010080499
:10FDA600023E5149453E00427F400042615149466C
:10FDB6002141454B311814127F1027454545393CE2
:10FDC6004A49493001710905033649494936064908
:10FDD60049291E0036360000005636000000081479
:10FDE600224114141414144122140800020151096A
:10FDF60006324979413E7E1111117E7F49494936C5
:10FE06003E414141227F4141221C7F494949417F70
:10FE1600090901013E414151327F0808087F00412E
:10FE26007F41002040413F017F081422417F40402E
:10FE360040407F0204027F7F0408107F3E4141411B
:10FE46003E7F090909063E4151215E7F091929466F
:10FE5600464949493101017F01013F4040403F1F6A
:10FE66002040201F7F2018207F631408146303049A
:10FE7600780403615149454300007F41410204086B
:10FE8600102041417F00000402010204404040402E
:10FE960040000102040020545454787F48444438FA
:10FEA6003844444420384444487F3854545418084D
:10FEB6007E090102081454543C7F08040478004467
:10FEC6007D40002040443D00007F10284400417FD3
:10FED60040007C041804787C0804047838444444C0
:10FEE600387C14141408081414187C7C08040408BC
:10FEF6004854545420043F4440203C4040207C1C3D
:10FF06002040201C3C4030403C44281028440C50E3
:10FF160050503C4464544C44000836410000007F75
:10FF26000000004136080008082A1C08081C2A0898
:10FF360008014C69676874204272696768746E6567
:10FF460073730054696D652041667465723A2000CA
:10FF56004272696768746E6573733A200053746100
:10FF6600727420436F6C6F72730052756E20546901
:10FF76006D653A20005374617274436F6C6F720042
:10FF860052756E2054696D6573004261636B6C69CE
:10FF9600676874004D61696E204D656E7500536526
:10FFA6006C537461746500456E64436F6C6F7200C8
:10FFB600477265656E3A200052756E54696D65002C
:10FFC600426C75653A200056616C756573006D6903
:10FFD6006E202020005265643A20004261636B0067
:10FFE6002520202000252020002D2D2D004F4646BF
:0AFFF600004E4150006D696E0000DE
:020000040020DA
:08000000FFFFFFFFFFFFFFFF00
:020000040030CA
:0E00000015087F7CFF8991FF0FC00FE00F40B5
:00000001FF
