:040000005AEF00F0C3
:100008003882FACF1FF0FBCF20F0E9CF21F0EACFFA
:1000180022F0E1CF23F0E2CF24F0D9CF25F0DACFD8
:1000280026F0F3CF27F0F4CF28F0F6CF29F0F7CF5A
:100038002AF0F8CF2BF0F5CF2CF038C02DF039C0CE
:100048002EF03AC02FF03BC030F0F2BAF2A403D041
:1000580093EC07F005D0F2B6F2A002D0CAEC01F09A
:1000680030C03BF02FC03AF02EC039F02DC038F028
:100078002CC0F5FF2BC0F8FF2AC0F7FF29C0F6FFF8
:1000880028C0F4FF27C0F3FF26C0DAFF25C0D9FF38
:1000980024C0E2FF23C0E1FF22C0EAFF21C0E9FF3C
:1000A80020C0FBFF1FC0FAFF38921100F1EF05F0E6
:1000B80075C07DF076C07EF000017D1F7E1F7D4BF0
:1000C8007E2B79517D258F6F7A517E21906F77C075
:1000D8007DF078C07EF07D1F7E1F7D4B7E2B7B518F
:1000E8007D25916F7C517E21926FD8908F35876FD7
:1000F8009035886FD8909135896F92358A6F75C021
:100108008BF076C08CF077C08DF078C08EF0000E42
:10011800846F010E836F000E866F010E856F90AF9E
:100128000AD0836984698F6D901FD8B0902B876D32
:10013800881FD8B0882B92AF0AD085698669916DDF
:10014800921FD8B0922B896D8A1FD8B08A2B77C09E
:100158006EF0910EF66EFF0EF76E000EF86E080048
:10016800F5CF6FF075513FEC02F000018F519011FF
:10017800D8A404D091519211D8B4120091518F5D36
:100188009051800A7D6F9251800A7D59D8A035D050
:10019800000E806F000E7F6F83518B2784518C2354
:1001A80089517F278A5180237F518F5D9051800A22
:1001B8007D6F8051800A7D59D8B008D085518D2730
:1001C80086518E2387517F5F8851805B8DC06EF08A
:1001D800910EF66EFF0EF76E000EF86E0800F5CF62
:1001E8006FF08B513FEC02F0000179518B19D4E18B
:1001F8007A518C19D8B41200CFD7000E826F000E36
:10020800816F85518D2786518E238751812788518B
:1002180082238151915D9251800A7D6F8251800ABB
:100228007D59D8B008D083518B2784518C238951AC
:10023800815F8A51825B8DC06EF0910EF66EFF0E63
:10024800F76E000EF86E0800F5CF6FF08B513FEC9B
:1002580002F000017B518D19D4E17C518E19D8B47C
:100268001200CFD7000E00016B6F9D5191EC02F088
:10027800D40E00016D6FFF0E6E6F23EC07F0000EB9
:1002880000016B6F9C51FC0F91EC02F0F80E00011D
:100298006D6FFF0E6E6F23EC07F0000E0001766F96
:1002A800000E756F000E786F0C0E776F000E7A6F68
:1002B8007F0E796F000E7C6F0C0E7B6F5CEC00F08C
:1002C800F80E00019C25756F766BFF0E7623000EE5
:1002D800786F000E776FF80E9C25796F7A6BFF0E9A
:1002E8007A23000E7C6F3F0E7B6F5CEC00F0020EF1
:1002F80000016B6F9D5191EC02F0F00E00016D6FE3
:10030800FF0E6E6F23EC07F0030E00016B6F9D511B
:1003180091EC02F0B50E00016D6FFF0E6E6F23ECCD
:1003280007F0040E00016B6F9D5191EC02F0AA0ECC
:1003380000016D6FFF0E6E6F23EC07F0050E0001D4
:100348006B6F9D5191EC02F0E70E00016D6FFF0E8F
:100358006E6F23EC07F0060E00016B6F9D5191EC58
:1003680002F0CA0E00016D6FFF0E6E6F23EC07F0EE
:10037800070E00016B6F9D5191EC02F0DE0E00013B
:100388006D6FFF0E6E6F23EC07F01200000E81BA3E
:10039800010E1B6E000E81B8010E1C6E81A803D0E1
:1003A800196A192A01D0196A81AA03D01A6A1A2A65
:1003B80001D01A6AD8901A3419101D6E030E0C6EEB
:1003C8004B0E98EC03F01B50300F45EC06F01C5018
:1003D800300F45EC06F01DC019F0D8901932010E07
:1003E80019163350010B19181E6E1E50D8B402D0BE
:1003F800322A01D0312A030E326003D0020E316452
:1004080034D01A0E196EF80EE82EFED7192EFCD726
:1004180000D0000E326E000E316E08D01E50F1EC86
:1004280007F023D01E50F1EC07F01FD03450000A1B
:10043800D8B4F4D7020AD8B418D0010AD8B415D061
:10044800070AD8B412D0010AD8B40FD0030AD8B416
:100458000CD0010AD8B409D00F0AD8B406D0010AC2
:10046800D8B403D0030AD8A4DDD71DC033F081CF98
:1004780081FFF29012000001736F6EC060F00001FE
:10048800616B000E636F080E626FD5EC02F000011D
:100498006051746F74C06BF0735191EC02F04CECC6
:1004A80004F00001726F6EC060F0616B000E636F44
:1004B800080E626FD5EC02F000016051746F74C0D1
:1004C8006BF0735191EC02F04CEC04F00001726F88
:1004D8006EC060F0616B000E636F080E626FD5EC42
:1004E80002F000016051746F74C06BF0735191ECAD
:1004F80002F06EC070F0070E00017017010E716FE8
:10050800702B02D0D8907137702FFCD70001715131
:1005180072137251D5EC03F0120000016C6F6CC0BD
:10052800A1F06BC0A0F0000E00016D6F010E6D65AB
:1005380001D014D06DC068F0400EECEC06F06DC030
:1005480068F000016B51B809ECEC06F06DC068F07A
:10055800C00EECEC06F000016D2BE8D76CC060F023
:10056800616B000E636F400E626FD5EC02F0000104
:100578006051686F6C513F0B4009ECEC06F06CC0A1
:1005880060F00001616B000E636F400E626FD5EC86
:1005980002F000016051686F6B51B809ECEC06F08D
:1005A8001200000E0001656F63AF06D0626D631F15
:1005B800D8B0632B010E656F61AF06D0606D611F07
:1005C800D8B0612B010E651B000E676F000E666FB9
:1005D80062516311D8B41CD0010E646F04D0D89056
:1005E80062376337642B63AFFAD7D89066376737BB
:1005F8006251605D63516159D8A005D06251605F56
:100608006351615B6681D89063336233642FEDD7A1
:100618006551D8B404D0666D671FD8B0672B66C023
:1006280060F067C061F01200000E066E04AE06D0DE
:10063800036C041ED8B0042A010E066E02AE06D062
:10064800016C021ED8B0022A010E061A000E086EAE
:10065800000E076E03500410D8B41CD0010E056EAE
:1006680004D0D89003360436052A04AEFAD7D890B9
:10067800073608360350015C04500258D8A005D04C
:100688000350015E0450025A0780D89004320332A6
:10069800052EEDD70650D8B404D0076C081ED8B084
:1006A800082A07C001F008C002F0120081B4120045
:1006B80002D008EC07F081A4FCD73450D8B419D084
:1006C8002CD0010E346E000E0001A26F11EC04F064
:1006D80028D0020E07D0030E05D0060E03D0090E4F
:1006E80001D00A0E346E1DD0000E346E36EC01F0C7
:1006F80018D03550020AD8B4E4D7010AD8B4E9D7DB
:10070800070AD8B4E8D7010AD8B4E7D7030AD8B497
:10071800E6D7010AD8B4E5D7E7D7000E346E36EC31
:1007280001F06EEC06F012000D6E0DC0A1F00CC0C9
:10073800A0F0000E0E6E010E0E6401D012D00EC095
:1007480009F0400E3BEC07F00EC009F00C50B80958
:100758003BEC07F00EC009F0C00E3BEC07F00E2A88
:10076800EAD70DC001F0026A000E046E400E036E57
:1007780018EC03F00150096E0D503F0B40093BEC9B
:1007880007F00DC001F0026A000E046E400E036E01
:1007980018EC03F00150096E0C50B8093BEC07F057
:1007A80012000001696FA1C060F00001616B000ECA
:1007B800636F400E626FD5EC02F00001605153EC9C
:1007C80007F00001686F68BFEED7000E946E809244
:1007D800808469C082FFA1C060F0616B000E636F06
:1007E800400E626FD5EC02F00001605169EC07F031
:1007F800808660EC08F08096A1C060F00001616B13
:10080800000E636F400E626FD5EC02F0000160517C
:100818007EEC07F00001A12B1200000E00016B6FA7
:10082800000E91EC02F0C00E00016D6FFF0E6E6FAE
:1008380023EC07F0000E0001766F000E756F000EB6
:10084800786F090E776F000E7A6F7F0E796F000E42
:100858007C6F090E7B6F5CEC00F0020E00016B6F81
:100868009F5191EC02F09F0E00016D6FFF0E6E6FAD
:1008780023EC07F0040E00016B6F9F5191EC02F01E
:10088800920E00016D6FFF0E6E6F23EC07F01200E1
:10089800A1C060F00001616B000E636F400E626FD3
:1008A800D5EC02F00001605153EC07F00001686FCD
:1008B80068BFEED79468060E8012A1C060F0616B25
:1008C800000E636F400E626FD5EC02F000016051BC
:1008D80069EC07F0808660EC08F082CF69F08096BA
:1008E800A1C060F00001616B000E636F400E626F83
:1008F800D5EC02F0000160517EEC07F00001A12B5D
:10090800695112000A6EA1C001F0026A000E046E5D
:10091800400E036E18EC03F00150CEEC07F0096EA0
:1009280009BEF1D7000E946E809280840AC082FFBF
:10093800A1C001F0026A000E046E400E036E18ECAE
:1009480003F00150A8EC07F0808662EC08F080966E
:10095800A1C001F0026A000E046E400E036E18EC8E
:1009680003F00150BBEC07F00001A12B1200000EB0
:100978000001766F070E766501D0120076C06BF025
:10098800000E91EC02F0000E0001756F05D0000E0C
:10099800D5EC03F00001752BFF0E6E6FFF0E6F6F25
:1009A8009D51706F716B6E5170276F517123755126
:1009B800726F736B7051725D7351800A746F7151ED
:1009C800800A7459D8A0E3D7762BD4D7000E176EB7
:1009D800070E176401D0120017C00CF0000E98EC37
:1009E80003F0000E166E04D0000E86EC04F0162AF2
:1009F800FF0E0F6EFF0E106E00019D51116E126AF0
:100A08000F501126105012221650136E146A1150EE
:100A1800135C1450800A156E1250800A1558D8A01D
:100A2800E3D7172AD5D7000E8D6E000E8C6E000EF8
:100A3800896E000E8A6E000E8B6E050E966E010E84
:100A4800926E9368000E946E0F0E956E000E0F0155
:100A58005D6F000E5C6F000E5B6F5A895A8B000E3B
:100A68000001606F000E616F4EEC08F0000E00018F
:100A7800606F000E616F49EC08F0F2861200000109
:100A88006A6F200E00016A5F000E6C6F000E6B6FBC
:100A98006CBF06D06C511BE1050E6B5DD8B017D04A
:100AA8006A51050D6B51F3266C51F422B10EF324F3
:100AB800F66EFD0EF420F76EF86A000EF8220800B4
:100AC800F550D5EC03F000016B4B6C2BE1D7000E11
:100AD800D5EC03F01200000E00016E6F020E6B6F72
:100AE8009E5100089F2591EC02F0000E00016E6FE8
:100AF80005D0000ED5EC03F000016E2B9E516E5D03
:100B0800D8A0F7D7040E6B6F9E5100089F2591EC73
:100B180002F0000E00016E6F05D0000ED5EC03F058
:100B280000016E2B9E516E5DD8B01200F6D721D011
:100B3800020E00016B6F9E5100089F2591EC02F098
:100B480027EC08F01200040E00016B6F9E5100089C
:100B58009F2591EC02F027EC08F01200020E00012C
:100B68006B6F9E5100089F2591EC02F027EC08F06E
:100B780012000001A251000AD8B4DAD7010AD8B489
:100B8800E2D7ECD721D0020E0C6E00019E5100086E
:100B98009F2598EC03F031EC08F01200040E0C6E5F
:100BA80000019E5100089F2598EC03F031EC08F0F5
:100BB8001200020E0C6E00019E5100089F2598EC51
:100BC80003F031EC08F012000001A251000AD8B479
:100BD800DAD7010AD8B4E2D7ECD7B00EF66E100E09
:100BE800F76E000EF86E00EE9CF010EE04F00900AF
:100BF800F5CFEEFFE550E150FAE1C80EF66E100EA3
:100C0800F76E000EF86E0900F5CF36F00900F5CF43
:100C180037F00001A26BA16BA06B356A346A336AA6
:100C2800326A316A389038920001B2EF06F0000E4D
:100C38000F6E020E0C6E00019E5100089F2598EC65
:100C480003F0000E0F6E04D0000E86EC04F00F2A9D
:100C580000019E510F5CD8A0F7D7040E0C6E9E5170
:100C680000089F2598EC03F0000E0F6E04D0000ECC
:100C780086EC04F00F2A00019E510F5CD8B01200D8
:100C8800F6D70B6E200E0B5E000E0D6E000E0C6E6E
:100C98000DBE06D00D501AE1050E0C5CD8B016D06A
:100CA8000B50050D0C50F3260D50F422B10EF32411
:100CB800F66EFD0EF420F76EF86A000EF8220800B2
:100CC800F55086EC04F00C4A0D2AE2D7000E86ECAB
:100CD80004F0120019D0BBEC04F035C06BF0000E24
:100CE80091EC02F027EC08F012006FEC05F09BEC99
:100CF80005F01200BBEC04F035C06BF0000E91EC6F
:100D080002F027EC08F012003450000AD8B4E3D7F8
:100D1800010AD8B4EAD7EED719D0EAEC04F035C006
:100D28000CF0000E98EC03F031EC08F012001BEC0C
:100D380006F0C6EC05F01200EAEC04F035C00CF041
:100D4800000E98EC03F031EC08F012003450000A61
:100D5800D8B4E3D7010AD8B4EAD7EED710EC08F034
:100D6800F28EF28C8D821A0E0001936FF80EE82E27
:100D7800FED7932FFCD700F0E0EC07F008EC07F063
:100D880036EC01F0000E346E020E356E6EEC06F095
:100D98005AEC03F0FDD7140ED56E0B0ED76EDB0E92
:100DA800D66ED650D7CF62F00001636B62C063F095
:100DB800626B6211946F6351956FF294F28ACA0E56
:100DC800606F100E616F44EC08F05CEC08F01200E4
:100DD80000016A6F0001685153EC07F00001696F68
:100DE80069BFF8D7000E946EF90E8016685169EC49
:100DF80007F06AC082FF808660EC08F080960001E8
:100E080068517EEC07F01200000E00016F6F070EAC
:100E18006F6501D012006FC06BF0000E91EC02F00C
:100E2800000E00016E6F7F0E6E6501D006D0000EB9
:100E3800D5EC03F000016E2BF6D76F2BE8D70CD05A
:100E48006DC0F6FF6EC0F7FFF86A0800F55043EC76
:100E580005F000016D4B6E2B6DC0F6FF6EC0F7FFFD
:100E6800F86A0800F5500009D8B41200E9D70B6EEB
:100E78000950CEEC07F00A6E0ABEFAD7000E946E3F
:100E8800F90E80160950A8EC07F00BC082FF808687
:100E980062EC08F080960950BBEC07F012000001E4
:100EA800626F9468808280940001625169EC07F057
:100EB800808660EC08F082CF61F080960001625174
:100EC8007EEC07F00001615112000001606F06D04E
:100ED800809A1200809C1200809E120000016051CE
:100EE800000AD8B4F5D7010AD8B4F4D7030AD8A4AD
:100EF8001200F2D70001606F06D0808A1200808C41
:100F08001200808E120000016051000AD8B4F5D793
:100F1800010AD8B4F4D7030AD8A41200F2D7F2947D
:100F280000019551D76E94C0D6FF96519711D8B449
:100F3800120001D812000500FA6E9651FD6E975105
:100F4800FE6EFF6AFA501200016E06D0809A1200F7
:100F5800809C1200809E12000150000AD8B4F6D777
:100F6800010AD8B4F5D7030AD8A41200F3D7016E42
:100F780006D0808A1200808C1200808E12000150E8
:100F8800000AD8B4F6D7010AD8B4F5D7030AD8A40A
:100F98001200F3D7036E9468808280940350A8EC03
:100FA80007F0808662EC08F082CF02F0809603504A
:100FB800BBEC07F00250120053EC08F0000E0001E1
:100FC8006B6F020E6B6501D012006BC068F03F0EAC
:100FD800ECEC06F000016B2BF4D7186E1850D8B45F
:100FE80005D0070E356007D0352804D0020E3564C9
:100FF80002D03504356E90EC06F012003C0EBB6E44
:10100800000EBF6E0F0E9C6E800EBE6E180EBC6E6C
:10101800000EBD6E998012005EEC08F017EC05F02A
:101028003BEC08F002EC08F01DEC08F0CFEC06F001
:101038001200020E886EF90EA96E000E876EB79E1A
:101048005AEC08F012007E0ED5EC03F03C0ED5ECFD
:1010580003F0180ED5EC03F012007E0E86EC04F0B7
:101068003C0E86EC04F0180E86EC04F01200600EBC
:10107800D36E000ED26E000E9B6E000E9A6E12009A
:1010880060C096F061C097F0120060C098F061C02F
:1010980099F0120060C09AF061C09BF01200E00E57
:1010A8008012110E921612004C04040A8884120051
:1010B800D58E1200D09E120000F0120000F012002F
:0410C80041031200CE
:10FDB00000000000000000005F00000007000700D6
:10FDC000147F147F14242A7F2A12231308646236B6
:10FDD000495522500005030000001C22410000414B
:10FDE000221C00082A1C2A0808083E080800503077
:10FDF000000008080808080030300000201008043F
:10FE0000023E5149453E00427F4000426151494611
:10FE10002141454B311814127F1027454545393C87
:10FE20004A494930017109050336494949360649AD
:10FE300049291E003636000000563600000008141E
:10FE4000224114141414144122140800020151090F
:10FE500006324979413E7E1111117E7F494949366A
:10FE60003E414141227F4141221C7F494949417F16
:10FE7000090901013E414151327F0808087F0041D4
:10FE80007F41002040413F017F081422417F4040D4
:10FE900040407F0204027F7F0408107F3E414141C1
:10FEA0003E7F090909063E4151215E7F0919294615
:10FEB000464949493101017F01013F4040403F1F10
:10FEC0002040201F7F2018207F6314081463030440
:10FED000780403615149454300007F414102040811
:10FEE000102041417F0000040201020440404040D4
:10FEF00040000102040020545454787F48444438A0
:10FF00003844444420384444487F385454541808F2
:10FF10007E090102081454543C7F0804047800440C
:10FF20007D40002040443D00007F10284400417F78
:10FF300040007C041804787C080404783844444465
:10FF4000387C14141408081414187C7C0804040861
:10FF50004854545420043F4440203C4040207C1CE2
:10FF60002040201C3C4030403C44281028440C5089
:10FF700050503C4464544C44000836410000007F1B
:10FF80000000004136080008082A1C08081C2A083E
:10FF9000080154696D652041667465723A2000520B
:10FFA000756E2054696D653A200053746172744314
:10FFB0006F6C6F72004272696768746E657373006C
:10FFC00052756E2054696D6573004261636B6C6994
:10FFD000676874004D61696E204D656E75005365EC
:10FFE0006C537461746500456E64436F6C6F72008E
:10FFF00052756E54696D650056616C7565730000CD
:020000040020DA
:08000000FFFFFFFFFFFFFFFF00
:020000040030CA
:0E00000015087F7CFF8991FF0FC00FE00F40B5
:00000001FF
