:0400000044EF00F0D9
:100008003C82FACF16F0FBCF17F0E9CF18F0EACF11
:1000180019F0E1CF1AF0E2CF1BF0D9CF1CF0DACFFC
:100028001DF0F3CF1EF0F4CF1FF0F6CF20F0F7CF7E
:1000380021F0F8CF22F0F5CF23F0F2B6F2A002D0EB
:1000480061EC02F023C0F5FF22C0F8FF21C0F7FFE2
:1000580020C0F6FF1FC0F4FF1EC0F3FF1DC0DAFF6B
:100068001CC0D9FF1BC0E2FF1AC0E1FF19C0EAFF9C
:1000780018C0E9FF17C0FBFF16C0FAFF3C92110039
:1000880002EF03F03BC02FF0000E18EC01F0F60E63
:10009800306EFF0E316ED4EC02F03BC02FF0010E33
:1000A80018EC01F0E10E306EFF0E316ED4EC02F068
:1000B8003BC02FF0020E18EC01F0CA0E306EFF0E96
:1000C800316ED4EC02F03BC02FF0030E18EC01F0B7
:1000D800AE0E306EFF0E316ED4EC02F03BC02FF046
:1000E800040E18EC01F0EC0E306EFF0E316ED4ECFD
:1000F80002F03BC02FF0050E18EC01F0BD0E306E7B
:10010800FF0E316ED4EC02F03BC02FF0060E18EC57
:1001180001F0D60E306EFF0E316ED4EC02F01200F4
:10012800000E296E27AE06D0266C271ED8B0272AC7
:10013800010E296E25AE06D0246C251ED8B0252ABE
:10014800010E291A000E2B6E000E2A6E265027105B
:10015800D8B41CD0010E286E04D0D8902636273685
:10016800282A27AEFAD7D8902A362B362650245C70
:1001780027502558D8A005D02650245E2750255A48
:100188002A80D89027322632282EEDD72950D8B485
:1001980004D02A6C2B1ED8B02B2A2AC024F02BC0DE
:1001A80025F01200000E066E04AE06D0036C041E85
:1001B800D8B0042A010E066E02AE06D0016C021EEB
:1001C800D8B0022A010E061A000E086E000E076E3D
:1001D80003500410D8B41CD0010E056E04D0D8907A
:1001E80003360436052A04AEFAD7D89007360836FF
:1001F8000350015C04500258D8A005D00350015E9A
:100208000450025A0780D89004320332052EEDD7E5
:100218000650D8B404D0076C081ED8B0082A07C006
:1002280001F008C002F01200306E30C033F02FC069
:1002380032F0000E316E010E316401D012D031C09F
:100248002CF0400E8CEC02F031C02CF02F50B80985
:100258008CEC02F031C02CF0C00E8CEC02F0312A8C
:10026800EAD730C024F0256A000E276E400E266EAD
:1002780094EC00F024502C6E30503F0B40098CEC6D
:1002880002F030C024F0256A000E276E400E266E5C
:1002980094EC00F024502C6E2F50B8098CEC02F02E
:1002A80012000D6E0DC033F00CC032F0000E0E6E51
:1002B800010E0E6401D012D00EC009F0400EBCEC45
:1002C80002F00EC009F00C50B809BCEC02F00EC0E8
:1002D80009F0C00EBCEC02F00E2AEAD70DC001F0FE
:1002E800026A000E046E400E036ED6EC00F0015058
:1002F800096E0D503F0B4009BCEC02F00DC001F037
:10030800026A000E046E400E036ED6EC00F0015037
:10031800096E0C50B809BCEC02F012000001606FC5
:10032800200E0001605F000E0001626F000E616F19
:10033800000162BF08D00001625126E1050E0001EC
:10034800615DD8B021D060C024F0256A000E276E08
:10035800050E266E15EC03F0CD0E2E6EFD0E2F6EDB
:1003680024502E2625502F22000161512E242A6E5A
:10037800000162512F202B6EEFEC03F0CCEC01F062
:100388000001614B622BD4D7000ECCEC01F01200B7
:100398002D6E33C024F0256A000E276E400E266E9F
:1003A80094EC00F0245074EC03F02C6E2CBEF1D7C2
:1003B800000E946E809280842DC082FF33C024F09A
:1003C800256A000E276E400E266E94EC00F024502D
:1003D80028EC03F0808608EC04F0809633C024F003
:1003E800256A000E276E400E266E94EC00F024500D
:1003F8003BEC03F0332A12000A6E33C001F0026AA4
:10040800000E046E400E036ED6EC00F0015086EC30
:1004180003F0096E09BEF1D7000E946E80928084B5
:100428000AC082FF33C001F0026A000E046E400E5B
:10043800036ED6EC00F001504EEC03F080860AEC17
:1004480004F0809633C001F0026A000E046E400E7C
:10045800036ED6EC00F0015061EC03F0332A120071
:10046800000E8D6E000E8C6E000E896E000E8A6E68
:10047800000E8B6E050E966E010E926E9368000E3E
:10048800946E0F0E956E000E0F015D6F000E0F013A
:100498005C6F0F015B690F015A890F015A8B000EBF
:1004A800246E000E256EFAEC03F0000E246E000E8A
:1004B800256EF5EC03F0F2861200060E126E300E71
:1004C800E82EFED7122EFCD700D081A803D0126ADE
:1004D800122A01D0126A81AA03D0136A132A01D002
:1004E800136AD89013341210146E14C012F0D890F6
:1004F8001232010E12163450010B1218156E1550D7
:1005080098EC03F014C034F081CF81FFF290120010
:100518002E6E2C5074EC03F02D6E2DBEFAD7000E03
:10052800946EF90E80162C5028EC03F02EC082FF32
:10053800808608EC04F080962C503BEC03F0120007
:10054800000E106E070E106401D01200000E0C6E23
:10055800105055EC01F0000E0F6E04D0000E00ECA8
:1005680002F00F2A3B500F5CD8A0F8D7102AEAD720
:100578000B6E095086EC03F00A6E0ABEFAD7000E1D
:10058800946EF90E801609504EEC03F00BC082FFF2
:1005980080860AEC04F08096095061EC03F01200A2
:1005A8000BD030C0F6FF31C0F7FFF86A0800F550ED
:1005B80092EC01F0304A312A30C0F6FF31C0F7FF23
:1005C800F86A0800F5500009D8B41200EAD7355087
:1005D800D8A41200A4EC02F0000E0C6E365055ECB4
:1005E80001F07E0E00EC02F03C0E00EC02F0180E5A
:1005F80000EC02F07E0E00EC02F01200180EF66E0F
:10060800080EF76E000EF86E0900F5CF3BF0366A5B
:10061800356A346A336A326A3C903C920001C6EF0C
:1006280003F024502602F3CF28F0F4CF29F0245009
:100638002702F350292625502602F350292628C0E0
:1006480024F029C025F01200246E06D0809A1200EA
:10065800809C1200809E12002450000AD8B4F6D75D
:10066800010AD8B4F5D7030AD8A41200F3D7246E28
:1006780006D0808A1200808C1200808E12002450CE
:10068800000AD8B4F6D7010AD8B4F5D7030AD8A413
:100698001200F3D7016E06D0809A1200809C1200D7
:1006A800809E12000150000AD8B4F6D7010AD8B4C7
:1006B800F5D7030AD8A41200F3D7016E06D0808AB2
:1006C8001200808C1200808E12000150000AD8B4EB
:1006D800F6D7010AD8B4F5D7030AD8A41200F3D77D
:1006E800266E946880828094265028EC03F08086D9
:1006F80008EC04F082CF25F0809626503BEC03F0FE
:1007080025501200036E94688082809403504EEC4A
:1007180003F080860AEC04F082CF02F08096035042
:1007280061EC03F002501200116E1150D8B405D0DC
:10073800060E366007D0362804D03650D8B402D01A
:100748003604366EEBEC02F01200FFEC03F0000EFC
:100758002F6E020E2F6401D012002FC02CF03F0E16
:100768008CEC02F02F2AF5D73C0EBB6E000EBF6E44
:100778000F0E9C6E800EBE6E090EBC6E000EBD6E16
:1007880099801200D1EC03F0F28EF28CA9EC03F000
:1007980046EC00F0000E366EFDD706EC04F034ECA3
:1007A80002F0E6EC03F0B8EC03F0DCEC03F0120026
:1007B800010E886E630EA96E000E876EB79E04EC5C
:1007C80004F01200600ED36E000ED26E000E9B6E07
:1007D800000E9A6E12002AC0D9FF2BC0DAFFDF5034
:1007E800120024C037F025C038F0120024C039F0B8
:1007F80025C03AF01200E00E8012110E9216120077
:1008080088841200D09E120000F0120000F012003E
:0108180003DC
:10FDCC0000000000000000005F00000007000700BA
:10FDDC00147F147F14242A7F2A122313086462369A
:10FDEC00495522500005030000001C22410000412F
:10FDFC00221C00082A1C2A0808083E08080050305B
:10FE0C000000080808080800303000002010080422
:10FE1C00023E5149453E00427F40004261514946F5
:10FE2C002141454B311814127F1027454545393C6B
:10FE3C004A49493001710905033649494936064991
:10FE4C0049291E0036360000005636000000081402
:10FE5C0022411414141414412214080002015109F3
:10FE6C0006324979413E7E1111117E7F494949364E
:10FE7C003E414141227F4141221C7F494949417FFA
:10FE8C00090901013E414151327F0808087F0041B8
:10FE9C007F41002040413F017F081422417F4040B8
:10FEAC0040407F0204027F7F0408107F3E414141A5
:10FEBC003E7F090909063E4151215E7F09192946F9
:10FECC00464949493101017F01013F4040403F1FF4
:10FEDC002040201F7F2018207F6314081463030424
:10FEEC00780403615149454300007F4141020408F5
:10FEFC00102041417F0000040201020440404040B8
:10FF0C0040000102040020545454787F4844443883
:10FF1C003844444420384444487F385454541808D6
:10FF2C007E090102081454543C7F080404780044F0
:10FF3C007D40002040443D00007F10284400417F5C
:10FF4C0040007C041804787C080404783844444449
:10FF5C00387C14141408081414187C7C0804040845
:10FF6C004854545420043F4440203C4040207C1CC6
:10FF7C002040201C3C4030403C44281028440C506D
:10FF8C0050503C4464544C44000836410000007FFF
:10FF9C000000004136080008082A1C08081C2A0822
:10FFAC00080146696E697368656420436F6C6F72F3
:10FFBC000053656C656374205374617465005374ED
:10FFCC0061727420436F6C6F7200536176652053BD
:10FFDC0074617465004272696768746E657373004E
:10FFEC004261636B6C696768740052756E2054696A
:04FFFC006D6500002F
:020000040020DA
:08000000FFFFFFFFFFFFFFFF00
:020000040030CA
:0E00000015087F7CFF8991FF0FC00FE00F40B5
:00000001FF
