:040000005AEF00F0C3
:100008004982FACF28F0FBCF29F0E9CF2AF0EACFCE
:100018002BF0E1CF2CF0E2CF2DF0D9CF2EF0DACFB4
:100028002FF0F3CF30F0F4CF31F0F6CF32F0F7CF36
:1000380033F0F8CF34F0F5CF35F049C036F04AC088
:1000480037F04BC038F04CC039F0F2BAF2A403D004
:1000580050EC0AF005D0F2B6F2A002D0D1EC03F0D1
:1000680039C04CF038C04BF037C04AF036C049F0C0
:1000780035C0F5FF34C0F8FF33C0F7FF32C0F6FFD4
:1000880031C0F4FF30C0F3FF2FC0DAFF2EC0D9FF14
:100098002DC0E2FF2CC0E1FF2BC0EAFF2AC0E9FF18
:1000A80029C0FBFF28C0FAFF499211002EEF07F084
:1000B80075C07DF076C07EF000017D1F7E1F7D4BF0
:1000C8007E2B79517D258F6F7A517E21906F77C075
:1000D8007DF078C07EF07D1F7E1F7D4B7E2B7B518F
:1000E8007D25916F7C517E21926FD8908F35876FD7
:1000F8009035886FD8909135896F92358A6F75C021
:100108008BF076C08CF077C08DF078C08EF0000E42
:10011800846F010E836F000E866F010E856F90AF9E
:100128000AD0836984698F6D901FD8B0902B876D32
:10013800881FD8B0882B92AF0AD085698669916DDF
:10014800921FD8B0922B896D8A1FD8B08A2B77C09E
:100158006EF0810EF66EFF0EF76E000EF86E080058
:10016800F5CF6FF075512DEC03F000018F51901110
:10017800D8A404D091519211D8B4120091518F5D36
:100188009051800A7D6F9251800A7D59D8A035D050
:10019800000E806F000E7F6F83518B2784518C2354
:1001A80089517F278A5180237F518F5D9051800A22
:1001B8007D6F8051800A7D59D8B008D085518D2730
:1001C80086518E2387517F5F8851805B8DC06EF08A
:1001D800810EF66EFF0EF76E000EF86E0800F5CF72
:1001E8006FF08B512DEC03F0000179518B19D4E19C
:1001F8007A518C19D8B41200CFD7000E826F000E36
:10020800816F85518D2786518E238751812788518B
:1002180082238151915D9251800A7D6F8251800ABB
:100228007D59D8B008D083518B2784518C238951AC
:10023800815F8A51825B8DC06EF0810EF66EFF0E73
:10024800F76E000EF86E0800F5CF6FF08B512DECAD
:1002580003F000017B518D19D4E17C518E19D8B47B
:100268001200CFD7C4EC09F0000E00016B6FA65145
:100278001DEC04F0C40E00016D6FFF0E6E6F88EC6C
:1002880007F0000E00016B6F4650FC0F1DEC04F0E8
:10029800E80E00016D6FFF0E6E6F88EC07F0000E20
:1002A8000001766F000E756F000E786F0C0E776F79
:1002B800000E7A6F7F0E796F000E7C6F0C0E7B6FCD
:1002C8005CEC00F0F80E46240001756F766BFF0EAB
:1002D8007623000E786F000E776FF80E4624796F3C
:1002E8007A6BFF0E7A23000E7C6F3F0E7B6F5CECFF
:1002F80000F0020E00016B6FA6511DEC04F0E00E39
:1003080000016D6FFF0E6E6F88EC07F0020E0001A2
:100318006B6F46501DEC04F0930E0001706F000ED9
:10032800716F41C072F0736B000E756F0A0E746FB7
:1003380087EC08F0930E00016D6F000E6E6F88EC6D
:1003480007F0FB0E00016D6FFF0E6E6F88EC07F073
:10035800030E00016B6FA6511DEC04F0A50E000101
:100368006D6FFF0E6E6F88EC07F0040E00016B6F67
:10037800A6511DEC04F09A0E00016D6FFF0E6E6F12
:1003880088EC07F0050E00016B6FA6511DEC04F018
:10039800D70E00016D6FFF0E6E6F88EC07F0060E2A
:1003A80000016B6FA6511DEC04F0BA0E00016D6FD1
:1003B800FF0E6E6F88EC07F0070E00016B6FA651F9
:1003C8001DEC04F0CE0E00016D6FFF0E6E6F88EC11
:1003D80007F01200C4EC09F0000E00016B6F000E6C
:1003E8001DEC04F0B00E00016D6FFF0E6E6F88EC0F
:1003F80007F0000E0001766F000E756F000E786F23
:10040800090E776F000E7A6F7F0E796F000E7C6F82
:10041800090E7B6F5CEC00F0020E00016B6FA851B7
:100428001DEC04F08F0E00016D6FFF0E6E6F88ECEF
:1004380007F0020E00016B6F46501DEC04F0930E9E
:100448000001706F000E716F41C072F0736B000E87
:10045800756F0A0E746F87EC08F0930E00016D6FCC
:10046800000E6E6F88EC07F0FB0E00016D6FFF0E3B
:100478006E6F88EC07F0040E00016B6FA8511DEC3D
:1004880004F0820E00016D6FFF0E6E6F88EC07F0AE
:10049800040E00016B6F46501DEC04F0930E000132
:1004A800706F000E716FA5C072F0736B000E756FE0
:1004B8000A0E746F87EC08F0930E00016D6F000E42
:1004C8006E6F88EC07F0FB0E00016D6FFF0E6E6F0C
:1004D80088EC07F0060E00016B6FA8511DEC04F0C4
:1004E800DFEC09F0F60E00016D6FFF0E6E6F88EC01
:1004F80007F0120081B412001A0E00019D6FF80E69
:10050800E82EFED79D2FFCD700F081B4120047D00B
:100518004450D8B418D02BD0010E446E000E436E50
:10052800EEEC01F03CD0020E07D0030E05D0060E0B
:1005380003D0090E01D00A0E446E31D0000E446E6D
:1005480036EC01F02CD04550020AD8B4E5D7010AA0
:10055800D8B4E9D7070AD8B4E8D7010AD8B4E7D796
:10056800030AD8B4E6D7010AD8B4E5D7E7D74404D4
:10057800D8A411D0020E4318D8A405D0000E446E9A
:1005880036EC01F00CD04250D8A402D0010E01D0B4
:10059800000E426E04D0000E446E36EC01F081A4C9
:1005A800B7D7CBEC08F0120069C06DF06AC06EF0E6
:1005B8006DC060F06EC061F06BC062F06CC063F03B
:1005C8000BEC08F060C06DF061C06EF00001674B85
:1005D800682B6D516E11D8A4EBD767C0D9FF68C0DE
:1005E800DAFF000EDF6E6707D8A0680769C060F001
:1005F8006AC061F06BC062F06CC063F0A9EC08F0EF
:10060800000160516F6F69C060F06AC061F06BC033
:1006180062F06CC063F00BEC08F060C069F061C078
:100628006AF0090E00016F6502D0070E6F27300EC1
:100638006F2767C0D9FF68C0DAFF6FC0DFFF6707A1
:10064800D8A0680769516A11D8A4D0D7674B682B1E
:1006580012000001736F6EC060F00001616B000E44
:10066800636F080E626FA5EC04F000016051746FAF
:1006780074C06BF073511DEC04F020EC06F000011F
:10068800726F6EC060F0616B000E636F080E626F70
:10069800A5EC04F000016051746F74C06BF07351E5
:1006A8001DEC04F020EC06F00001726F6EC060F0E3
:1006B800616B000E636F080E626FA5EC04F0000119
:1006C8006051746F74C06BF073511DEC04F06EC010
:1006D80070F0070E00017017010E716F702B02D0B9
:1006E800D8907137702FFCD7000171517213725175
:1006F800E4EC05F012000AC00EF00BC00FF00EC0BB
:1007080001F00FC002F00CC003F00DC004F035EC8E
:1007180008F001C00EF002C00FF0084A092A0E5076
:100728000F10D8A4ECD708C0D9FF09C0DAFF000E13
:10073800DF6E0806D8A009060AC001F00BC002F057
:100748000CC003F00DC004F030EC09F00150106E3D
:100758000AC001F00BC002F00CC003F00DC004F099
:1007680035EC08F001C00AF002C00BF0090E106465
:1007780002D0070E1026300E102608C0D9FF09C077
:10078800DAFF10C0DFFF0806D8A009060A500B10D0
:10079800D8A4D2D7084A092A1200000E81BA010E3D
:1007A800266E000E81B8010E256E265026242510CF
:1007B800246E030E4018D8A436D02650D8A402D0F0
:1007C800010E01D0000E276E0CD02750BFEC0AF0A6
:1007D8002AD0275061EC04F026D02750BFEC0AF04D
:1007E80022D04450000AD8B4F0D7010AD8B4F1D7BF
:1007F800030AD8B418D0010AD8B415D0070AD8B457
:1008080012D0010AD8B40FD0030AD8B40CD0010A08
:10081800D8B409D00F0AD8B406D0010AD8B403D086
:10082800030AD8A4DAD724C040F081CF81FFF29020
:10083800120000016C6F6CC0A4F06BC0A3F0000E36
:1008480000016D6F010E6D6501D014D06DC068F0A8
:10085800400EA8EC09F06DC068F000016B51B809B2
:10086800A8EC09F06DC068F0C00EA8EC09F0000112
:100878006D2BE8D76CC060F0616B000E636F400EA3
:10088800626FA5EC04F000016051686F6C513F0B7A
:100898004009A8EC09F06CC060F00001616B000E23
:1008A800636F400E626FA5EC04F000016051686F41
:1008B8006B51B809A8EC09F01200236E4250D8A475
:1008C8002DD031D02350D8B405D04128D8B405D084
:1008D800412A03D04150D8A44106020E0C6E46505E
:1008E800A7EC05F0190E116E000E126E41C013F040
:1008F800146A000E166E0A0E156E0FEC09F0190E2A
:100908000E6E000E0F6EE0EC07F0EF0E0E6EFF0E8F
:100918000F6EE0EC07F0120000F012004350000ADE
:10092800D8B4D0D7F9D72350D8B405D0020E436035
:1009380005D0432A03D04350D8A44306EDEC08F071
:100948001200000E0001656F63AF06D0626D631F71
:10095800D8B0632B010E656F61AF06D0606D611F63
:10096800D8B0612B010E651B000E676F000E666F15
:1009780062516311D8B41CD0010E646F04D0D890B2
:1009880062376337642B63AFFAD7D8906637673717
:100998006251605D63516159D8A005D06251605FB2
:1009A8006351615B6681D89063336233642FEDD7FE
:1009B8006551D8B404D0666D671FD8B0672B66C080
:1009C80060F067C061F01200000E066E04AE06D03B
:1009D800036C041ED8B0042A010E066E02AE06D0BF
:1009E800016C021ED8B0022A010E061A000E086E0B
:1009F800000E076E03500410D8B41CD0010E056E0B
:100A080004D0D89003360436052A04AEFAD7D89015
:100A1800073608360350015C04500258D8A005D0A8
:100A28000350015E0450025A0780D8900432033202
:100A3800052EEDD70650D8B404D0076C081ED8B0E0
:100A4800082A07C001F008C002F01200000E0001D9
:100A58006E6F020E6B6FA7510008A8251DEC04F0FD
:100A6800000E00016E6F05D0000EE4EC05F00001E9
:100A78006E2BA7516E5DD8A0F7D7040E6B6FA751E8
:100A88000008A8251DEC04F0000E00016E6F05D0CB
:100A9800000EE4EC05F000016E2BA7516E5DD8A0A6
:100AA800F7D7060E6B6FA7510008A8251DEC04F0B8
:100AB800000E00016E6F05D0000EE4EC05F0000199
:100AC8006E2BA7516E5DD8B01200F6D7000E0F6ED0
:100AD800020E0C6E0001A7510008A825A7EC05F02E
:100AE800000E0F6E04D0000ECAEC06F00F2A0001AB
:100AF800A7510F5CD8A0F7D7040E0C6EA7510008B9
:100B0800A825A7EC05F0000E0F6E04D0000ECAEC65
:100B180006F00F2A0001A7510F5CD8A0F7D7060EE0
:100B28000C6EA7510008A825A7EC05F0000E0F6E63
:100B380004D0000ECAEC06F00F2A0001A7510F5C82
:100B4800D8B01200F6D70D6E0DC0A4F00CC0A3F0FB
:100B5800000E0E6E010E0E6401D012D00EC009F008
:100B6800400EF8EC09F00EC009F00C50B809F8EC8A
:100B780009F00EC009F0C00EF8EC09F00E2AEAD709
:100B88000DC001F0026A000E046E400E036EE8EC20
:100B980004F00150096E0D503F0B4009F8EC09F0C4
:100BA8000DC001F0026A000E046E400E036EE8EC00
:100BB80004F00150096E0C50B809F8EC09F0120065
:100BC8000001696FA4C060F00001616B000E636FE3
:100BD800400E626FA5EC04F00001605110EC0AF0C1
:100BE8000001686F68BFEED7000E956E8092808412
:100BF80069C083FFA4C060F0616B000E636F400E94
:100C0800626FA5EC04F00001605126EC0AF08086C2
:100C180022EC0BF08096A4C060F00001616B000E1E
:100C2800636F400E626FA5EC04F0000160513BEC6D
:100C38000AF00001A42B1200A4C060F00001616B4F
:100C4800000E636F400E626FA5EC04F00001605166
:100C580010EC0AF00001686F68BFEED79568060EC1
:100C68008012A4C060F0616B000E636F400E626F6B
:100C7800A5EC04F00001605126EC0AF0808622EC15
:100C88000BF083CF69F08096A4C060F00001616B1F
:100C9800000E636F400E626FA5EC04F00001605116
:100CA8003BEC0AF00001A42B695112002CD0020E73
:100CB80000016B6FA7510008A8251DEC04F0DAECC1
:100CC8000AF01200040E00016B6FA7510008A82556
:100CD8001DEC04F0DAEC0AF01200060E00016B6F4E
:100CE800A7510008A8251DEC04F0DAEC0AF0120060
:100CF800020E00016B6FA7510008A8251DEC04F037
:100D0800DAEC0AF012004350000AD8B4D0D7010A2E
:100D1800D8B4D8D7030AD8B4E0D7EAD72CD0020E73
:100D28000C6E0001A7510008A825A7EC05F0E4EC1B
:100D38000AF01200040E0C6E0001A7510008A82545
:100D4800A7EC05F0E4EC0AF01200060E0C6E0001A8
:100D5800A7510008A825A7EC05F0E4EC0AF012005A
:100D6800020E0C6E0001A7510008A825A7EC05F09B
:100D7800E4EC0AF012004350000AD8B4D0D7010AB4
:100D8800D8B4D8D7030AD8B4E0D7EAD70A6EA4C033
:100D980001F0026A000E046E400E036EE8EC04F0E7
:100DA80001508BEC0AF0096E09BEF1D7000E956E62
:100DB800809280840AC083FFA4C001F0026A000EFA
:100DC800046E400E036EE8EC04F0015065EC0AF086
:100DD800808624EC0BF08096A4C001F0026A000E15
:100DE800046E400E036EE8EC04F0015078EC0AF053
:100DF8000001A42B1200000E0001766F070E766525
:100E080001D0120076C06BF0000E1DEC04F0000E4D
:100E18000001756F05D0000EE4EC05F00001752B9C
:100E2800FF0E6E6FFF0E6F6FA651706F716B6E5174
:100E380070276F5171237551726F736B7051725DAA
:100E48007351800A746F7151800A7459D8A0E3D71E
:100E5800762BD4D74F0EF66E160EF76E000EF86E80
:100E68000900F5CFA6F00900F5CFA7F00900F5CFE6
:100E7800A8F04C0EF66E160EF76E000EF86E09000E
:100E8800F5CF46F00900F5CF47F00900F5CF48F057
:100E98000001A56BA46BA36B00EE3AF00C0EEE6A92
:100EA800E806FDE149904992000151EF09F0000E72
:100EB800176E070E176401D0120017C00CF0000E51
:100EC800A7EC05F0000E166E04D0000ECAEC06F072
:100ED800162AFF0E0F6EFF0E106E0001A651116E3E
:100EE800126A0F501126105012221650136E146AEF
:100EF8001150135C1450800A156E1250800A155850
:100F0800D8A0E3D7172AD5D716D06DC0F6FF6EC084
:100F1800F7FF000EF86E0E0EF76403D00800F550C8
:100F280005D0F6CFE9FFF7CFEAFFEF50B4EC07F0B2
:100F380000016D4B6E2B6DC0F6FF6EC0F7FF000E03
:100F4800F86E0E0EF76403D00800F55005D0F6CF02
:100F5800E9FFF7CFEAFFEF500009D8B41200D5D760
:100F680000016A6F200E00016A5F000E6C6F000EB0
:100F78006B6F6CBF06D06C511BE1050E6B5DD8B072
:100F880017D06A51050D6B51F3266C51F422A10E4E
:100F9800F324F66EFD0EF420F76EF86A000EF822C0
:100FA8000800F550E4EC05F000016B4B6C2BE1D721
:100FB800000EE4EC05F0120015D00EC0F6FF0FC0CD
:100FC800F7FF000EF86E0E0EF76403D00800F55018
:100FD80005D0F6CFE9FFF7CFEAFFEF505EEC08F057
:100FE8000E4A0F2A0EC0F6FF0FC0F7FF000EF86E6C
:100FF8000E0EF76403D00800F55005D0F6CFE9FFD0
:10100800F7CFEAFFEF500009D8B41200D6D7000E88
:101018000001656F000E646F62516311D8B41CD073
:10102800010E666F04D0D89062376337662B63AFC2
:10103800FAD7D890643765376251605D635161595A
:10104800D8A005D06251605F6351615B6481D8901C
:1010580063336233662FEDD764C060F065C061F01A
:101068001200000E066E000E056E03500410D8B470
:101078001CD0010E076E04D0D89003360436072A18
:1010880004AEFAD7D890053606360350015C0450F2
:101098000258D8A005D00350015E0450025A0580BA
:1010A800D89004320332072EEDD705C001F006C0F0
:1010B80002F012000B6E200E0B5E000E0D6E000E7D
:1010C8000C6E0DBE06D00D501AE1050E0C5CD8B0A2
:1010D80016D00B50050D0C50F3260D50F422A10E1E
:1010E800F324F66EFD0EF420F76EF86A000EF8226F
:1010F8000800F550CAEC06F00C4A0D2AE2D7000E9B
:10110800CAEC06F0120070C076F071C077F00001EA
:1011180073AF0CD070C0D9FF71C0DAFF2D0EDF6E2F
:10112800704B712B726D731FD8B0732B70C067F042
:1011380071C068F072C069F073C06AF074C06BF077
:1011480075C06CF0D8EC02F0120000016251631116
:10115800D8B418D0010E646F04D0D89062376337C2
:10116800642B63AFFAD76251605D63516159D8A0AF
:1011780004D06251605F6351615BD890633362331E
:10118800642FF1D760C060F061C061F0120019D01F
:10119800FFEC06F045C06BF0000E1DEC04F0DAEC35
:1011A8000AF012002AEC05F05AEC06F01200FFECE7
:1011B80006F045C06BF0000E1DEC04F0DAEC0AF006
:1011C80012004450000AD8B4E3D7010AD8B4EAD7C9
:1011D800EED719D05BEC07F045C00CF0000EA7EC79
:1011E80005F0E4EC0AF012006AEC05F092EC06F067
:1011F80012005BEC07F045C00CF0000EA7EC05F000
:10120800E4EC0AF012004450000AD8B4E3D7010A0B
:10121800D8B4EAD7EED711C017F012C018F014AE40
:101228000CD011C0D9FF12C0DAFF2D0EDF6E114AA3
:10123800122A136C141ED8B0142A11C008F012C058
:1012480009F013C00AF014C00BF015C00CF016C05A
:101258000DF07FEC03F0120003500410D8B418D03E
:10126800010E056E04D0D89003360436052A04AE64
:10127800FAD70350015C04500258D8A004D0035098
:10128800015E0450025AD89004320332052EF1D779
:1012980001C001F002C002F012009DEC0AF0F28ECB
:1012A800F28C8D821A0E00019E6FF80EE82EFED782
:1012B8009E2FFCD700F0AEEC0AF0C4EC09F036EC37
:1012C80001F0000E446E020E456ECBEC08F07EEC89
:1012D80002F0FDD7140ED56E0B0ED76EDB0ED66E50
:1012E800D650D7CF62F00001636B62C063F0626BC7
:1012F80062119F6F6351A06FF294F28A520E606F71
:10130800160E616F12EC0BF01EEC0BF01200000EC3
:101318008D6E000E8C6E000E896E000E8A6E000EA9
:101328008B6E050E966E010E926E93689468000E91
:10133800956E000E0F015D6F000E5C6F000E5B6F07
:101348005A895A8BF286120000016A6F00016851AF
:1013580010EC0AF00001696F69BFF8D7000E956EAE
:10136800F90E8016685126EC0AF06AC083FF808661
:1013780022EC0BF08096000168513BEC0AF0120059
:10138800000E00016F6F070E6F6501D012006FC06D
:101398006BF0000E1DEC04F0000E00016E6F7F0E66
:1013A8006E6501D006D0000EE4EC05F000016E2B4E
:1013B800F6D76F2BE8D7040EE4EC05F00E0EE4EC3C
:1013C80005F0950EE4EC05F0840EE4EC05F0840ECF
:1013D800E4EC05F0440EE4EC05F0380EE4EC05F01E
:1013E800000EE4EC05F012000B6E09508BEC0AF0CD
:1013F8000A6E0ABEFAD7000E956EF90E80160950CD
:1014080065EC0AF00BC083FF808624EC0BF0809615
:10141800095078EC0AF012000001626F956880822A
:1014280080940001625126EC0AF0808622EC0BF0D1
:1014380083CF61F08096000162513BEC0AF0000115
:10144800615112000001606F06D0809A1200809CE2
:101458001200809E120000016051000AD8B4F5D72E
:10146800010AD8B4F4D7030AD8A41200F2D70001AD
:10147800606F06D0808A1200808C1200808E120065
:1014880000016051000AD8B4F5D7010AD8B4F4D7DE
:10149800030AD8A41200F2D7F2940001A051D76E23
:1014A8009FC0D6FFA151A211D8B4120001D81200D2
:1014B8000500FA6EA151FD6EA251FE6EFF6AFA5048
:1014C8001200016E06D0809A1200809C1200809E45
:1014D80012000150000AD8B4F6D7010AD8B4F5D7DB
:1014E800030AD8A41200F3D7016E06D0808A12002E
:1014F800808C1200808E12000150000AD8B4F6D7F2
:10150800010AD8B4F5D7030AD8A41200F3D7036E9A
:10151800956880828094035065EC0AF0808624ECFC
:101528000BF083CF02F08096035078EC0AF002505B
:10153800120020EC0BF08BEC09F009EC0BF000EC3E
:101548000BF0EEEC0AF0D0EC0AF0F7EC0AF06EECD7
:1015580009F0120017EC0BF0000E00016B6F020E81
:101568006B6501D012006BC068F03F0EA8EC09F063
:1015780000016B2BF4D7186E1850D8B405D0070E9D
:10158800456007D0452804D0020E456402D04504C2
:10159800456EEDEC08F01200020E886EF90EA96E89
:1015A800000E876EB79E1CEC0BF012007E0EE4EC6A
:1015B80005F03C0EE4EC05F0180EE4EC05F0120022
:1015C8007E0ECAEC06F03C0ECAEC06F0180ECAEC09
:1015D80006F012003C0E0F014A6F7C0E4B6F000E96
:1015E8004C6F998612003C0E0F014D6F7C0E4E6FAA
:1015F800000E4F6F998412003C0E0F01506F7C0E45
:10160800516F000E526F99821200600ED36E000E59
:10161800D26E000E9B6E000E9A6E120060C0A1F092
:1016280061C0A2F01200E00E8012110E9216120094
:1016380088841200D58E1200D09E120000F012008D
:0C16480000F0120050410304040A1200DC
:10FDA00000000000000000005F00000007000700E6
:10FDB000147F147F14242A7F2A12231308646236C6
:10FDC000495522500005030000001C22410000415B
:10FDD000221C00082A1C2A0808083E080800503087
:10FDE000000008080808080030300000201008044F
:10FDF000023E5149453E00427F4000426151494622
:10FE00002141454B311814127F1027454545393C97
:10FE10004A494930017109050336494949360649BD
:10FE200049291E003636000000563600000008142E
:10FE3000224114141414144122140800020151091F
:10FE400006324979413E7E1111117E7F494949367A
:10FE50003E414141227F4141221C7F494949417F26
:10FE6000090901013E414151327F0808087F0041E4
:10FE70007F41002040413F017F081422417F4040E4
:10FE800040407F0204027F7F0408107F3E414141D1
:10FE90003E7F090909063E4151215E7F0919294625
:10FEA000464949493101017F01013F4040403F1F20
:10FEB0002040201F7F2018207F6314081463030450
:10FEC000780403615149454300007F414102040821
:10FED000102041417F0000040201020440404040E4
:10FEE00040000102040020545454787F48444438B0
:10FEF0003844444420384444487F38545454180803
:10FF00007E090102081454543C7F0804047800441C
:10FF10007D40002040443D00007F10284400417F88
:10FF200040007C041804787C080404783844444475
:10FF3000387C14141408081414187C7C0804040871
:10FF40004854545420043F4440203C4040207C1CF2
:10FF50002040201C3C4030403C44281028440C5099
:10FF600050503C4464544C44000836410000007F2B
:10FF70000000004136080008082A1C08081C2A084E
:10FF8000080154696D652041667465723A2000521B
:10FF9000756E2054696D653A200053746172744324
:10FFA0006F6C6F72004272696768746E657373007C
:10FFB00052756E2054696D6573004261636B6C69A4
:10FFC000676874004D61696E204D656E75005365FC
:10FFD0006C537461746500456E64436F6C6F72009E
:10FFE00052756E54696D650056616C756573006D70
:10FFF000696E202020004261636B006D696E000015
:020000040020DA
:08000000FFFFFFFFFFFFFFFF00
:020000040030CA
:0E00000015087F7CFF8991FF0FC00FE00F40B5
:00000001FF
