:040000005AEF00F0C3
:100008003B82FACF13F0FBCF14F0E9CF15F0EACF1B
:1000180016F0E1CF17F0E2CF18F0D9CF19F0DACF08
:100028001AF0F3CF1BF0F4CF1CF0F6CF1DF0F7CF8A
:100038001EF0F8CF1FF0F5CF20F03BC021F03CC0F8
:1000480022F03DC023F03EC024F0F2BAF2A403D05F
:100058000EEC04F005D0F2B6F2A002D07FEC01F06D
:1000680024C03EF023C03DF022C03CF021C03BF04C
:1000780020C0F5FF1FC0F8FF1EC0F7FF1DC0F6FF28
:100088001CC0F4FF1BC0F3FF1AC0DAFF19C0D9FF68
:1000980018C0E2FF17C0E1FF16C0EAFF15C0E9FF6C
:1000A80014C0FBFF13C0FAFF3B921100ABEF03F043
:1000B800000E0001636F3A50B8EC00F0F60E000134
:1000C800656FFF0E666FDEEC03F0010E0001636FD3
:1000D8003A50B8EC00F0C50E0001656FFF0E666F70
:1000E800DEEC03F0020E0001636F3A50B8EC00F04A
:1000F800BA0E0001656FFF0E666FDEEC03F0030EAB
:100108000001636F3A50B8EC00F0ED0E0001656F26
:10011800FF0E666FDEEC03F0040E0001636F3A50C9
:10012800B8EC00F0DA0E0001656FFF0E666FDEECCA
:1001380003F0050E0001636F3A50B8EC00F0E40ECE
:100148000001656FFF0E666FDEEC03F0060E00011E
:10015800636F3A50B8EC00F0D00E0001656FFF0EE7
:10016800666FDEEC03F012000001646F64C036F0C5
:1001780063C035F0000E0001656F010E656501D0A2
:1001880014D065C060F0400E74EC03F065C060F0F8
:1001980000016351B80974EC03F065C060F0C00E4B
:1001A80074EC03F00001652BE8D764C025F0266ADB
:1001B800000E286E400E276EFBEC00F02550000163
:1001C800606F64513F0B400974EC03F064C025F084
:1001D800266A000E286E400E276EFBEC00F02550B4
:1001E8000001606F6351B80974EC03F01200000E4F
:1001F8002A6E28AE06D0276C281ED8B0282A010EF1
:100208002A6E26AE06D0256C261ED8B0262A010EE8
:100218002A1A000E2C6E000E2B6E27502810D8B408
:100228001CD0010E296E04D0D89027362836292AEA
:1002380028AEFAD7D8902B362C362750255C285074
:100248002658D8A005D02750255E2850265A2B803E
:10025800D89028322732292EEDD72A50D8B404D086
:100268002B6C2C1ED8B02C2A2BC025F02CC026F0C5
:100278001200000E066E04AE06D0036C041ED8B041
:10028800042A010E066E02AE06D0016C021ED8B01A
:10029800022A010E061A000E086E000E076E0350A1
:1002A8000410D8B41CD0010E056E04D0D8900336C3
:1002B8000436052A04AEFAD7D89007360836035014
:1002C800015C04500258D8A005D00350015E0450C8
:1002D800025A0780D89004320332052EEDD7065013
:1002E800D8B404D0076C081ED8B0082A07C001F09B
:1002F80008C002F01200060E0F6E300EE82EFED770
:100308000F2EFCD700D081A803D00F6A0F2A01D086
:100318000F6A81AA03D0106A102A01D0106AD890F7
:1003280010340F10126E030E0C6E410EBCEC01F06F
:1003380081AA02D0010E01D0000E300F11EC03F09B
:1003480081A802D0010E01D0000E300F11EC03F08D
:1003580012C00FF0D8900F32010E0F163750010B54
:100368000F18116E12C037F081CF81FFF290120082
:100378000D6E0DC036F00CC035F0000E0E6E010E7D
:100388000E6401D012D00EC009F0400EF6EC03F056
:100398000EC009F00C50B809F6EC03F00EC009F0D5
:1003A800C00EF6EC03F00E2AEAD70DC001F0026A7F
:1003B800000E046E400E036E3DEC01F00150096E14
:1003C8000D503F0B4009F6EC03F00DC001F0026A36
:1003D800000E046E400E036E3DEC01F00150096EF4
:1003E8000C50B809F6EC03F012000001616F36C03A
:1003F80025F0266A000E286E400E276EFBEC00F0F2
:1004080025506EEC04F00001606F60BFF0D7000E5D
:10041800946E8092808461C082FF36C025F0266A7F
:10042800000E286E400E276EFBEC00F0255022ECE3
:1004380004F08086EBEC04F0809636C025F0266A3E
:10044800000E286E400E276EFBEC00F0255035ECB0
:1004580004F0362A12000A6E36C001F0026A000E55
:10046800046E400E036E3DEC01F0015080EC04F088
:10047800096E09BEF1D7000E946E809280840AC07E
:1004880082FF36C001F0026A000E046E400E036E51
:100498003DEC01F0015048EC04F08086EDEC04F0EE
:1004A800809636C001F0026A000E046E400E036E9C
:1004B8003DEC01F001505BEC04F0362A1200000E0E
:1004C80000016E6F070E6E6501D012006EC063F0FA
:1004D800000EB8EC00F0000E00016D6F05D0000EA4
:1004E800F9EC01F000016D2BFF0E666FFF0E676FD0
:1004F8003A50686F696B66516827675169236D5177
:100508006A6F6B6B68516A5D6B51800A6C6F6951D9
:10051800800A6C59D8A0E3D76E2BD4D70001626F3C
:10052800200E0001625F000E646F000E636F64BFEF
:1005380006D064511BE1050E635DD8B017D0625137
:10054800050D6351F3266451F422D90EF324F66E97
:10055800FD0EF420F76EF86A000EF8220800F55038
:10056800F9EC01F00001634B642BE1D7000EF9ECC4
:1005780001F01200000E8D6E000E8C6E000E896E5A
:10058800000E8A6E000E8B6E050E966E010E926E30
:100598009368000E946E0F0E956E000E0F015D6F3E
:1005A800000E5C6F000E5B6F5A895A8B000E256E29
:1005B800000E266EDBEC04F0000E256E000E266E93
:1005C800D6EC04F0F286120081B4120000017051DA
:1005D800D8B41ED0030E7019D8A402D0050E19D0B5
:1005E800050E7019D8A402D0040E13D0040E701989
:1005F800D8B40ED0060E7019D8A402D0080E09D0AF
:10060800080E7019D8A402D0070E03D0070E70196F
:10061800000E706FC5EC03F012000B6E200E0B5E1F
:10062800000E0D6E000E0C6E0DBE06D00D501AE1B8
:10063800050E0C5CD8B016D00B50050D0C50F326E7
:100648000D50F422D90EF324F66EFD0EF420F76E49
:10065800F86A000EF8220800F5502FEC02F00C4A58
:100668000D2AE2D7000E2FEC02F01200B1EC04F0D4
:10067800F28EF28C8D821A0E00016F6FF80EE82E42
:10068800FED76F2FFCD700F092EC04F090EC03F04B
:100698005CEC00F0000E0001706F000E716FC5EC8D
:1006A80003F0E8EC02F0FDD7140ED56E0B0ED76EF2
:1006B800DB0ED66ED650D7CF27F0286A27C028F091
:1006C800276A27102D6E28502E6EF294F28AE60EB5
:1006D800256E090E266ED1EC04F0E7EC04F012004A
:1006E8000001626F000160516EEC04F00001616F5F
:1006F80061BFF8D7000E946EF90E8016605122EC97
:1007080004F062C082FF8086EBEC04F08096000162
:10071800605135EC04F01200000E0001676F070EFF
:10072800676501D0120067C063F0000EB8EC00F0F6
:10073800000E0001666F7F0E666501D006D0000EC0
:10074800F9EC01F00001662BF6D7672BE8D7DE0E2F
:10075800F66E090EF76E000EF86E0900F5CF38F048
:100768000900F5CF39F00900F5CF3AF00001716BB7
:10077800706B376A366A356A3B903B9200013AEFF4
:1007880003F063EC02F071C063F0000EB8EC00F007
:100798007E0EF9EC01F03C0EF9EC01F0180EF9ECC4
:1007A80001F0F2EC04F000017051D8B41200F1EC41
:1007B80004F012000CD065C0F6FF66C0F7FFF86AB7
:1007C8000800F55092EC02F00001654B662B65C0FD
:1007D800F6FF66C0F7FFF86A0800F5500009D8B4BC
:1007E8001200E9D70B6E095080EC04F00A6E0ABEBD
:1007F800FAD7000E946EF90E8016095048EC04F0F2
:100808000BC082FF8086EDEC04F0809609505BEC0B
:1008180004F01200F2942E50D76E2DC0D6FF2F5040
:100828003010D8B4120001D812000500FA6E2F500B
:10083800FD6E3050FE6EFF6AFA501200256E06D02B
:10084800809A1200809C1200809E12002550000A97
:10085800D8B4F6D7010AD8B4F5D7030AD8A4120039
:10086800F3D7256E06D0808A1200808C1200808E05
:1008780012002550000AD8B4F6D7010AD8B4F5D723
:10088800030AD8A41200F3D7016E06D0809A12008A
:10089800809C1200809E12000150000AD8B4F6D73E
:1008A800010AD8B4F5D7030AD8A41200F3D7016E09
:1008B80006D0808A1200808C1200808E12000150AF
:1008C800000AD8B4F6D7010AD8B4F5D7030AD8A4D1
:1008D8001200F3D7276E946880828094275022EC08
:1008E80004F08086EBEC04F082CF26F08096275047
:1008F80035EC04F026501200036E946880828094D0
:10090800035048EC04F08086EDEC04F082CF02F04E
:10091800809603505BEC04F002501200E0EC04F007
:10092800000E0001636F020E636501D0120063C000
:1009380060F03F0E74EC03F00001632BF4D73C0E1B
:10094800BB6E000EBF6E0F0E9C6E800EBE6E180E34
:10095800BC6E000EBD6E99801200E9EC04F0BEEC8E
:1009680002F0C8EC04F0A3EC04F0BEEC04F058EC80
:1009780003F01200020E886EF90EA96E000E876E43
:10098800B79EE5EC04F01200600ED36E000ED26E36
:10099800000E9B6E000E9A6E120025C02FF026C026
:1009A80030F0120025C031F026C032F0120025C008
:1009B80033F026C034F01200E00E8012110E9216A9
:1009C800120088841200D58E1200D09E120000F00A
:0909D800120000F01200014104BC
:0609E200120012001200D9
:10FDD80000000000000000005F00000007000700AE
:10FDE800147F147F14242A7F2A122313086462368E
:10FDF800495522500005030000001C224100004123
:10FE0800221C00082A1C2A0808083E08080050304E
:10FE18000000080808080800303000002010080416
:10FE2800023E5149453E00427F40004261514946E9
:10FE38002141454B311814127F1027454545393C5F
:10FE48004A49493001710905033649494936064985
:10FE580049291E00363600000056360000000814F6
:10FE680022411414141414412214080002015109E7
:10FE780006324979413E7E1111117E7F4949493642
:10FE88003E414141227F4141221C7F494949417FEE
:10FE9800090901013E414151327F0808087F0041AC
:10FEA8007F41002040413F017F081422417F4040AC
:10FEB80040407F0204027F7F0408107F3E41414199
:10FEC8003E7F090909063E4151215E7F09192946ED
:10FED800464949493101017F01013F4040403F1FE8
:10FEE8002040201F7F2018207F6314081463030418
:10FEF800780403615149454300007F4141020408E9
:10FF0800102041417F0000040201020440404040AB
:10FF180040000102040020545454787F4844443877
:10FF28003844444420384444487F385454541808CA
:10FF38007E090102081454543C7F080404780044E4
:10FF48007D40002040443D00007F10284400417F50
:10FF580040007C041804787C08040478384444443D
:10FF6800387C14141408081414187C7C0804040839
:10FF78004854545420043F4440203C4040207C1CBA
:10FF88002040201C3C4030403C44281028440C5061
:10FF980050503C4464544C44000836410000007FF3
:10FFA8000000004136080008082A1C08081C2A0816
:10FFB80008015374617274436F6C6F720042726906
:10FFC8006768746E65737300536176655374617402
:10FFD80065004261636B6C696768740053656C53B4
:10FFE8007461746500456E64436F6C6F720052757E
:07FFF8006E54696D65000005
:020000040020DA
:08000000FFFFFFFFFFFFFFFF00
:020000040030CA
:0E00000015087F7CFF8991FF0FC00FE00F40B5
:00000001FF
