:040000005AEF00F0C3
:100008004582FACF28F0FBCF29F0E9CF2AF0EACFD2
:100018002BF0E1CF2CF0E2CF2DF0D9CF2EF0DACFB4
:100028002FF0F3CF30F0F4CF31F0F6CF32F0F7CF36
:1000380033F0F8CF34F0F5CF35F045C036F046C090
:1000480037F047C038F048C039F0F2BAF2A403D00C
:100058005DEC0AF005D0F2B6F2A002D0CFEC03F0C6
:1000680039C048F038C047F037C046F036C045F0D0
:1000780035C0F5FF34C0F8FF33C0F7FF32C0F6FFD4
:1000880031C0F4FF30C0F3FF2FC0DAFF2EC0D9FF14
:100098002DC0E2FF2CC0E1FF2BC0EAFF2AC0E9FF18
:1000A80029C0FBFF28C0FAFF459211002CEF07F08A
:1000B80075C07DF076C07EF000017D1F7E1F7D4BF0
:1000C8007E2B79517D258F6F7A517E21906F77C075
:1000D8007DF078C07EF07D1F7E1F7D4B7E2B7B518F
:1000E8007D25916F7C517E21926FD8908F35876FD7
:1000F8009035886FD8909135896F92358A6F75C021
:100108008BF076C08CF077C08DF078C08EF0000E42
:10011800846F010E836F000E866F010E856F90AF9E
:100128000AD0836984698F6D901FD8B0902B876D32
:10013800881FD8B0882B92AF0AD085698669916DDF
:10014800921FD8B0922B896D8A1FD8B08A2B77C09E
:100158006EF0810EF66EFF0EF76E000EF86E080058
:10016800F5CF6FF075512BEC03F000018F51901112
:10017800D8A404D091519211D8B4120091518F5D36
:100188009051800A7D6F9251800A7D59D8A035D050
:10019800000E806F000E7F6F83518B2784518C2354
:1001A80089517F278A5180237F518F5D9051800A22
:1001B8007D6F8051800A7D59D8B008D085518D2730
:1001C80086518E2387517F5F8851805B8DC06EF08A
:1001D800810EF66EFF0EF76E000EF86E0800F5CF72
:1001E8006FF08B512BEC03F0000179518B19D4E19E
:1001F8007A518C19D8B41200CFD7000E826F000E36
:10020800816F85518D2786518E238751812788518B
:1002180082238151915D9251800A7D6F8251800ABB
:100228007D59D8B008D083518B2784518C238951AC
:10023800815F8A51825B8DC06EF0810EF66EFF0E73
:10024800F76E000EF86E0800F5CF6FF08B512BECAF
:1002580003F000017B518D19D4E17C518E19D8B47B
:100268001200CFD7D1EC09F0000E00016B6FAA5134
:100278001BEC04F0C40E00016D6FFF0E6E6FB2EC44
:1002880007F0000E00016B6F4250FC0F1BEC04F0EE
:10029800E80E00016D6FFF0E6E6FB2EC07F0000EF6
:1002A8000001766F000E756F000E786F0C0E776F79
:1002B800000E7A6F7F0E796F000E7C6F0C0E7B6FCD
:1002C8005CEC00F0F80E42240001756F766BFF0EAF
:1002D8007623000E786F000E776FF80E4224796F40
:1002E8007A6BFF0E7A23000E7C6F3F0E7B6F5CECFF
:1002F80000F0020E00016B6FAA511BEC04F0E00E37
:1003080000016D6FFF0E6E6FB2EC07F0020E000178
:100318006B6F42501BEC04F0930E0001706F000EDF
:10032800716F3DC072F0736B000E756F0A0E746FBB
:10033800B1EC08F0930E00016D6F000E6E6FB2EC19
:1003480007F0FB0E00016D6FFF0E6E6FB2EC07F049
:10035800030E00016B6FAA511BEC04F0A50E0001FF
:100368006D6FFF0E6E6FB2EC07F0040E00016B6F3D
:10037800AA511BEC04F09A0E00016D6FFF0E6E6F10
:10038800B2EC07F0050E00016B6FAA511BEC04F0EC
:10039800D70E00016D6FFF0E6E6FB2EC07F0060E00
:1003A80000016B6FAA511BEC04F0BA0E00016D6FCF
:1003B800FF0E6E6FB2EC07F0070E00016B6FAA51CB
:1003C8001BEC04F0CE0E00016D6FFF0E6E6FB2ECE9
:1003D80007F01200D1EC09F0000E00016B6F000E5F
:1003E8001BEC04F0B00E00016D6FFF0E6E6FB2ECE7
:1003F80007F0000E0001766F000E756F000E786F23
:10040800090E776F000E7A6F7F0E796F000E7C6F82
:10041800090E7B6F5CEC00F0020E00016B6FAC51B3
:100428001BEC04F08F0E00016D6FFF0E6E6FB2ECC7
:1004380007F0020E00016B6F42501BEC04F0930EA4
:100448000001706F000E716F3DC072F0736B000E8B
:10045800756F0A0E746FB1EC08F0930E00016D6FA2
:10046800000E6E6FB2EC07F0FB0E00016D6FFF0E11
:100478006E6FB2EC07F0040E00016B6FAC511BEC11
:1004880004F0820E00016D6FFF0E6E6FB2EC07F084
:10049800040E00016B6F42501BEC04F0930E000138
:1004A800706F000E716FA9C072F0736B000E756FDC
:1004B8000A0E746FB1EC08F0930E00016D6F000E18
:1004C8006E6FB2EC07F0FB0E00016D6FFF0E6E6FE2
:1004D800B2EC07F0060E00016B6FAC511BEC04F098
:1004E800ECEC09F0F60E00016D6FFF0E6E6FB2ECCA
:1004F80007F0120081B412001A0E00019D6FF80E69
:10050800E82EFED79D2FFCD700F047D04050D8B436
:1005180018D02BD0010E406E000E3F6EEEEC01F0AD
:100528003CD0020E07D0030E05D0060E03D0090EEC
:1005380001D00A0E406E31D0000E406E36EC01F04C
:100548002CD04150020AD8B4E5D7010AD8B4E9D76B
:10055800070AD8B4E8D7010AD8B4E7D7030AD8B449
:10056800E6D7010AD8B4E5D7E7D74004D8A411D014
:10057800020E3F18D8A405D0000E406E36EC01F0EC
:100588000CD03E50D8A402D0010E01D0000E3E6E11
:1005980004D0000E406E36EC01F081A4B7D7F5EC1C
:1005A80008F0120069C06DF06AC06EF06DC060F0AE
:1005B8006EC061F06BC062F06CC063F035EC08F09F
:1005C80060C06DF061C06EF00001674B682B6D5123
:1005D8006E11D8A4EBD767C0D9FF68C0DAFF000E48
:1005E800DF6E6707D8A0680769C060F06AC061F06D
:1005F8006BC062F06CC063F0D3EC08F0000160518E
:100608006F6F69C060F06AC061F06BC062F06CC067
:1006180063F035EC08F060C069F061C06AF0090E5B
:1006280000016F6502D0070E6F27300E6F2767C075
:10063800D9FF68C0DAFF6FC0DFFF6707D8A0680777
:1006480069516A11D8A4D0D7674B682B12000001F2
:10065800736F6EC060F00001616B000E636F080E6F
:10066800626FA3EC04F000016051746F74C06BF00A
:1006780073511BEC04F01EEC06F00001726F6EC0A3
:1006880060F0616B000E636F080E626FA3EC04F0FC
:1006980000016051746F74C06BF073511BEC04F06F
:1006A8001EEC06F00001726F6EC060F0616B000E08
:1006B800636F080E626FA3EC04F000016051746F61
:1006C80074C06BF073511BEC04F06EC070F0070E31
:1006D80000017017010E716F702B02D0D89071371E
:1006E800702FFCD70001715172137251E2EC05F0C2
:1006F80012000AC00EF00BC00FF00EC001F00FC0C0
:1007080002F00CC003F00DC004F05FEC08F001C06B
:100718000EF002C00FF0084A092A0E500F10D8A494
:10072800ECD708C0D9FF09C0DAFF000EDF6E080653
:10073800D8A009060AC001F00BC002F00CC003F0F3
:100748000DC004F05AEC09F00150106E0AC001F017
:100758000BC002F00CC003F00DC004F05FEC08F011
:1007680001C00AF002C00BF0090E106402D0070E97
:100778001026300E102608C0D9FF09C0DAFF10C0B5
:10078800DFFF0806D8A009060A500B10D8A4D2D754
:10079800084A092A1200000E81BA010E266E000EC0
:1007A80081B8010E256E265026242510246E030ECE
:1007B8003C18D8A436D02650D8A402D0010E01D0B7
:1007C800000E276E0CD02750BBEC0AF02AD0275019
:1007D8005FEC04F026D02750BBEC0AF022D0405042
:1007E800000AD8B4F0D7010AD8B4F1D7030AD8B4AC
:1007F80018D0010AD8B415D0070AD8B412D0010A03
:10080800D8B40FD0030AD8B40CD0010AD8B409D090
:100818000F0AD8B406D0010AD8B403D0030AD8A462
:10082800DAD724C03CF081CF81FFF290120000019A
:100838006C6F6CC0A8F06BC0A7F0000E00016D6F64
:10084800010E6D6501D014D06DC068F0400EB5EC96
:1008580009F06DC068F000016B51B809B5EC09F0FA
:100868006DC068F0C00EB5EC09F000016D2BE8D73B
:100878006CC060F0616B000E636F400E626FA3EC9A
:1008880004F000016051686F6C513F0B4009B5ECF2
:1008980009F06CC060F00001616B000E636F400EE0
:1008A800626FA3EC04F000016051686F6B51B809E6
:1008B800B5EC09F01200236E3E50D8A42DD031D0EB
:1008C8002350D8B405D03D28D8B405D03D2A03D04C
:1008D8003D50D8A43D06020E0C6E4250A5EC05F022
:1008E800190E116E000E126E3DC013F0146A000E40
:1008F800166E0A0E156E39EC09F0190E0E6E000E02
:100908000F6E0AEC08F0EF0E0E6EFF0E0F6E0AEC7B
:1009180008F0120000F012003F50000AD8B4D0D7F7
:10092800F9D72350D8B405D0020E3F6005D03F2A2E
:1009380003D03F50D8A43F0617EC09F01200000E70
:100948000001656F63AF06D0626D631FD8B0632B7B
:10095800010E656F61AF06D0606D611FD8B0612B65
:10096800010E651B000E676F000E666F6251631102
:10097800D8B41CD0010E646F04D0D89062376337A6
:10098800642B63AFFAD7D890663767376251605DDA
:1009980063516159D8A005D06251605F6351615BB2
:1009A8006681D89063336233642FEDD76551D8B42C
:1009B80004D0666D671FD8B0672B66C060F067C04B
:1009C80061F01200000E066E04AE06D0036C041E21
:1009D800D8B0042A010E066E02AE06D0016C021EC3
:1009E800D8B0022A010E061A000E086E000E076E15
:1009F80003500410D8B41CD0010E056E04D0D89052
:100A080003360436052A04AEFAD7D89007360836D6
:100A18000350015C04500258D8A005D00350015E71
:100A28000450025A0780D89004320332052EEDD7BD
:100A38000650D8B404D0076C081ED8B0082A07C0DE
:100A480001F008C002F01200000E00016E6F020EE5
:100A58006B6FAB510008AC251BEC04F0000E0001D5
:100A68006E6F05D0000EE2EC05F000016E2BAB5165
:100A78006E5DD8A0F7D7040E6B6FAB510008AC259C
:100A88001BEC04F0000E00016E6F05D0000EE2ECC6
:100A980005F000016E2BAB516E5DD8A0F7D7060E9E
:100AA8006B6FAB510008AC251BEC04F0000E000185
:100AB8006E6F05D0000EE2EC05F000016E2BAB5115
:100AC8006E5DD8B01200F6D7000E0F6E020E0C6ED7
:100AD8000001AB510008AC25A5EC05F0000E0F6E27
:100AE80004D0000EC8EC06F00F2A0001AB510F5CD1
:100AF800D8A0F7D7040E0C6EAB510008AC25A5ECB6
:100B080005F0000E0F6E04D0000EC8EC06F00F2A98
:100B18000001AB510F5CD8A0F7D7060E0C6EAB5195
:100B28000008AC25A5EC05F0000E0F6E04D0000EF1
:100B3800C8EC06F00F2A0001AB510F5CD8B01200C8
:100B4800F6D70D6E0DC0A8F00CC0A7F0000E0E6E03
:100B5800010E0E6401D012D00EC009F0400E05EC53
:100B68000AF00EC009F00C50B80905EC0AF00EC0E6
:100B780009F0C00E05EC0AF00E2AEAD70DC001F004
:100B8800026A000E046E400E036EE6EC04F001509B
:100B9800096E0D503F0B400905EC0AF00DC001F03D
:100BA800026A000E046E400E036EE6EC04F001507B
:100BB800096E0C50B80905EC0AF012000001696FC3
:100BC800A8C060F00001616B000E636F400E626F99
:100BD800A3EC04F0000160511DEC0AF00001686FFD
:100BE80068BFEED7000E946E8092808469C082FF41
:100BF800A8C060F0616B000E636F400E626FA3ECDB
:100C080004F00001605133EC0AF0808628EC0BF008
:100C18008096A8C060F00001616B000E636F400E03
:100C2800626FA3EC04F00001605148EC0AF0000187
:100C3800A82B1200A8C060F00001616B000E636F62
:100C4800400E626FA3EC04F0000160511DEC0AF045
:100C58000001686F68BFEED79468060E8012A8C0BE
:100C680060F0616B000E636F400E626FA3EC04F0DE
:100C78000001605133EC0AF0808628EC0BF082CF3B
:100C880069F08096A8C060F00001616B000E636F88
:100C9800400E626FA3EC04F00001605148EC0AF0CA
:100CA8000001A82B695112002CD0020E00016B6FB5
:100CB800AB510008AC251BEC04F0F1EC0AF0120073
:100CC800040E00016B6FAB510008AC251BEC04F05F
:100CD800F1EC0AF01200060E00016B6FAB51000830
:100CE800AC251BEC04F0F1EC0AF01200020E000136
:100CF8006B6FAB510008AC251BEC04F0F1EC0AF06B
:100D080012003F50000AD8B4D0D7010AD8B4D8D7B7
:100D1800030AD8B4E0D7EAD72CD0020E0C6E000133
:100D2800AB510008AC25A5EC05F0FBEC0AF012006D
:100D3800040E0C6E0001AB510008AC25A5EC05F0C3
:100D4800FBEC0AF01200060E0C6E0001AB51000815
:100D5800AC25A5EC05F0FBEC0AF01200020E0C6EB7
:100D68000001AB510008AC25A5EC05F0FBEC0AF03E
:100D780012003F50000AD8B4D0D7010AD8B4D8D747
:100D8800030AD8B4E0D7EAD70A6EA8C001F0026A0D
:100D9800000E046E400E036EE6EC04F0015098EC71
:100DA8000AF0096E09BEF1D7000E946E8092808415
:100DB8000AC082FFA8C001F0026A000E046E400E4D
:100DC800036EE6EC04F0015072EC0AF080862AEC1F
:100DD8000BF08096A8C001F0026A000E046E400E67
:100DE800036EE6EC04F0015085EC0AF00001A82B34
:100DF8001200000E0001766F070E766501D0120012
:100E080076C06BF0000E1BEC04F0000E0001756F4D
:100E180005D0000EE2EC05F00001752BFF0E6E6F99
:100E2800FF0E6F6FAA51706F716B6E5170276F5103
:100E380071237551726F736B7051725D7351800AB3
:100E4800746F7151800A7459D8A0E3D7762BD4D720
:100E58005B0EF66E160EF76E000EF86E0900F5CFF3
:100E6800AAF00900F5CFABF00900F5CFACF0580EA9
:100E7800F66E160EF76E000EF86E0900F5CF42F00A
:100E88000900F5CF43F00900F5CF44F00001A96B44
:100E9800A86BA76B00EE3AF0080EEE6AE806FDE1D3
:100EA8004590459200017BEF09F0000E176E070E82
:100EB800176401D0120017C00CF0000EA5EC05F065
:100EC800000E166E04D0000EC8EC06F0162AFF0EAF
:100ED8000F6EFF0E106E0001AA51116E126A0F50AC
:100EE8001126105012221650136E146A1150135CFA
:100EF8001450800A156E1250800A1558D8A0E3D7EE
:100F0800172AD5D7000E8D6E000E8C6E000E896ED6
:100F1800000E8A6E000E8B6E050E966E010E926E96
:100F28009368000E946E0F0E956E000E0F015D6FA4
:100F3800000E5C6F000E5B6F5A895A8B000E000121
:100F4800606F000E616F18EC0BF0000E0001606F0F
:100F5800000E616F13EC0BF0F286120016D06DC014
:100F6800F6FF6EC0F7FF000EF86E0E0EF76403D0A2
:100F78000800F55005D0F6CFE9FFF7CFEAFFEF50AC
:100F8800DEEC07F000016D4B6E2B6DC0F6FF6EC0F6
:100F9800F7FF000EF86E0E0EF76403D00800F55048
:100FA80005D0F6CFE9FFF7CFEAFFEF500009D8B434
:100FB8001200D5D700016A6F200E00016A5F000E8B
:100FC8006C6F000E6B6F6CBF06D06C511BE1050E89
:100FD8006B5DD8B017D06A51050D6B51F3266C5173
:100FE800F422A10EF324F66EFD0EF420F76EF86AD3
:100FF800000EF8220800F550E2EC05F000016B4BFA
:101008006C2BE1D7000EE2EC05F0120015D00EC0F3
:10101800F6FF0FC0F7FF000EF86E0E0EF76403D050
:101028000800F55005D0F6CFE9FFF7CFEAFFEF50FB
:1010380088EC08F00E4A0F2A0EC0F6FF0FC0F7FF23
:10104800000EF86E0E0EF76403D00800F55005D0B8
:10105800F6CFE9FFF7CFEAFFEF500009D8B4120046
:10106800D6D7000E0001656F000E646F62516311E0
:10107800D8B41CD0010E666F04D0D890623763379D
:10108800662B63AFFAD7D890643765376251605DD5
:1010980063516159D8A005D06251605F6351615BAB
:1010A8006481D89063336233662FEDD764C060F0F3
:1010B80065C061F01200000E066E000E056E03504A
:1010C8000410D8B41CD0010E076E04D0D890033693
:1010D8000436072A04AEFAD7D890053606360350E8
:1010E800015C04500258D8A005D00350015E04509A
:1010F800025A0580D89004320332072EEDD705C076
:1011080001F006C002F012000B6E200E0B5E000EFE
:101118000D6E000E0C6E0DBE06D00D501AE1050EB8
:101128000C5CD8B016D00B50050D0C50F3260D50A2
:10113800F422A10EF324F66EFD0EF420F76EF86A81
:10114800000EF8220800F550C8EC06F00C4A0D2AEB
:10115800E2D7000EC8EC06F0120070C076F071C03D
:1011680077F0000173AF0CD070C0D9FF71C0DAFFFF
:101178002D0EDF6E704B712B726D731FD8B0732BF1
:1011880070C067F071C068F072C069F073C06AF02F
:1011980074C06BF075C06CF0D6EC02F01200000160
:1011A80062516311D8B418D0010E646F04D0D8907E
:1011B80062376337642B63AFFAD76251605D63515E
:1011C8006159D8A004D06251605F6351615BD890C7
:1011D80063336233642FF1D760C060F061C061F09F
:1011E800120019D0FDEC06F041C06BF0000E1BECAC
:1011F80004F0F1EC0AF0120028EC05F058EC06F0C7
:101208001200FDEC06F041C06BF0000E1BEC04F080
:10121800F1EC0AF012004050000AD8B4E3D7010AF2
:10122800D8B4EAD7EED719D059EC07F041C00CF082
:10123800000EA5EC05F0FBEC0AF0120068EC05F0D6
:1012480090EC06F0120059EC07F041C00CF0000ECB
:10125800A5EC05F0FBEC0AF012004050000AD8B4E7
:10126800E3D7010AD8B4EAD7EED711C017F012C0F5
:1012780018F014AE0CD011C0D9FF12C0DAFF2D0E31
:10128800DF6E114A122A136C141ED8B0142A11C02A
:1012980008F012C009F013C00AF014C00BF015C012
:1012A8000CF016C00DF07DEC03F012000350041092
:1012B800D8B418D0010E056E04D0D8900336043681
:1012C800052A04AEFAD70350015C04500258D8A08E
:1012D80004D00350015E0450025AD89004320332FD
:1012E800052EF1D701C001F002C002F01200DAECBD
:1012F8000AF0F28EF28C8D821A0E00019E6FF80EA3
:10130800E82EFED79E2FFCD700F0AAEC0AF0D1EC0D
:1013180009F036EC01F0000E406E020E416EF5EC5D
:1013280008F07EEC02F0FDD7140ED56E0B0ED76ECA
:10133800DB0ED66ED650D7CF62F00001636B62C069
:1013480063F0626B62119F6F6351A06FF294F28A2F
:101358005E0E606F160E616F0EEC0BF024EC0BF056
:10136800120000016A6F000168511DEC0AF00001CB
:10137800696F69BFF8D7000E946EF90E8016685130
:1013880033EC0AF06AC082FF808628EC0BF0809666
:101398000001685148EC0AF01200000E00016F6F5E
:1013A800070E6F6501D012006FC06BF0000E1BECCA
:1013B80004F0000E00016E6F7F0E6E6501D006D03E
:1013C800000EE2EC05F000016E2BF6D76F2BE8D784
:1013D800040EE2EC05F00E0EE2EC05F0950EE2ECE0
:1013E80005F0840EE2EC05F0840EE2EC05F0440E04
:1013F800E2EC05F0380EE2EC05F0000EE2EC05F048
:1014080012000B6E095098EC0AF00A6E0ABEFAD761
:10141800000E946EF90E8016095072EC0AF00BC09B
:1014280082FF80862AEC0BF08096095085EC0AF042
:1014380012000001626F94688082809400016251FA
:1014480033EC0AF0808628EC0BF082CF61F08096AE
:101458000001625148EC0AF00001615112000001DC
:10146800606F06D0809A1200809C1200809E120045
:1014780000016051000AD8B4F5D7010AD8B4F4D7EE
:10148800030AD8A41200F2D70001606F06D0808A40
:101498001200808C1200808E120000016051000A38
:1014A800D8B4F5D7010AD8B4F4D7030AD8A41200DF
:1014B800F2D7F2940001A051D76E9FC0D6FFA15178
:1014C800A211D8B4120001D812000500FA6EA15179
:1014D800FD6EA251FE6EFF6AFA501200016E06D030
:1014E800809A1200809C1200809E12000150000A0F
:1014F800D8B4F6D7010AD8B4F5D7030AD8A412008D
:10150800F3D7016E06D0808A1200808C1200808E7C
:1015180012000150000AD8B4F6D7010AD8B4F5D79A
:10152800030AD8A41200F3D7036E946880828094CB
:10153800035072EC0AF080862AEC0BF082CF02F09E
:101548008096035085EC0AF0025012001DEC0BF057
:10155800000E00016B6F020E6B6501D012006BC0AC
:1015680068F03F0EB5EC09F000016B2BF4D7186E4C
:101578001850D8B405D0070E416007D0412804D0D0
:10158800020E416402D04104416E17EC09F01200CA
:101598003C0EBB6E000EBF6E0F0E9C6E800EBE6EB4
:1015A800180EBC6E000EBD6E9980120026EC0BF072
:1015B80086EC07F005EC0BF0CCEC0AF0E7EC0AF04F
:1015C80098EC09F01200020E886EF90EA96E000E52
:1015D800876EB79E22EC0BF012007E0EE2EC05F04F
:1015E8003C0EE2EC05F0180EE2EC05F012007E0E5F
:1015F800C8EC06F03C0EC8EC06F0180EC8EC06F075
:101608001200600ED36E000ED26E000E9B6E000E9E
:101618009A6E120060C0A1F061C0A2F0120060C012
:10162800A3F061C0A4F0120060C0A5F061C0A6F0EC
:101638001200E00E8012110E921612008884120019
:10164800D58E1200D09E120000F0120000F0120099
:0816580050410304040A1200D2
:10FDA00000000000000000005F00000007000700E6
:10FDB000147F147F14242A7F2A12231308646236C6
:10FDC000495522500005030000001C22410000415B
:10FDD000221C00082A1C2A0808083E080800503087
:10FDE000000008080808080030300000201008044F
:10FDF000023E5149453E00427F4000426151494622
:10FE00002141454B311814127F1027454545393C97
:10FE10004A494930017109050336494949360649BD
:10FE200049291E003636000000563600000008142E
:10FE3000224114141414144122140800020151091F
:10FE400006324979413E7E1111117E7F494949367A
:10FE50003E414141227F4141221C7F494949417F26
:10FE6000090901013E414151327F0808087F0041E4
:10FE70007F41002040413F017F081422417F4040E4
:10FE800040407F0204027F7F0408107F3E414141D1
:10FE90003E7F090909063E4151215E7F0919294625
:10FEA000464949493101017F01013F4040403F1F20
:10FEB0002040201F7F2018207F6314081463030450
:10FEC000780403615149454300007F414102040821
:10FED000102041417F0000040201020440404040E4
:10FEE00040000102040020545454787F48444438B0
:10FEF0003844444420384444487F38545454180803
:10FF00007E090102081454543C7F0804047800441C
:10FF10007D40002040443D00007F10284400417F88
:10FF200040007C041804787C080404783844444475
:10FF3000387C14141408081414187C7C0804040871
:10FF40004854545420043F4440203C4040207C1CF2
:10FF50002040201C3C4030403C44281028440C5099
:10FF600050503C4464544C44000836410000007F2B
:10FF70000000004136080008082A1C08081C2A084E
:10FF8000080154696D652041667465723A2000521B
:10FF9000756E2054696D653A200053746172744324
:10FFA0006F6C6F72004272696768746E657373007C
:10FFB00052756E2054696D6573004261636B6C69A4
:10FFC000676874004D61696E204D656E75005365FC
:10FFD0006C537461746500456E64436F6C6F72009E
:10FFE00052756E54696D650056616C756573006D70
:10FFF000696E202020004261636B006D696E000015
:020000040020DA
:08000000FFFFFFFFFFFFFFFF00
:020000040030CA
:0E00000015087F7CFF8991FF0FC00FE00F40B5
:00000001FF
