:040000005AEF00F0C3
:100008003B82FACF13F0FBCF14F0E9CF15F0EACF1B
:1000180016F0E1CF17F0E2CF18F0D9CF19F0DACF08
:100028001AF0F3CF1BF0F4CF1CF0F6CF1DF0F7CF8A
:100038001EF0F8CF1FF0F5CF20F03BC021F03CC0F8
:1000480022F03DC023F03EC024F0F2BAF2A403D05F
:1000580076EC06F005D0F2B6F2A002D022EC03F05E
:1000680024C03EF023C03DF022C03CF021C03BF04C
:1000780020C0F5FF1FC0F8FF1EC0F7FF1DC0F6FF28
:100088001CC0F4FF1BC0F3FF1AC0DAFF19C0D9FF68
:1000980018C0E2FF17C0E1FF16C0EAFF15C0E9FF6C
:1000A80014C0FBFF13C0FAFF3B921100E0EF05F00C
:1000B80074C07CF075C07DF000017C1F7D1F7C4BF7
:1000C8007D2B78517C258E6F79517D218F6F76C07D
:1000D8007CF077C07DF07C1F7D1F7C4B7D2B7A5197
:1000E8007C25906F7B517D21916FD8908E35866FDE
:1000F8008F35876FD8909035886F9135896F74C028
:100108008AF075C08BF076C08CF077C08DF0000E49
:10011800836F010E826F000E856F010E846F8FAFA3
:100128000AD0826983698E6D8F1FD8B08F2B866D38
:10013800871FD8B0872B91AF0AD084698569906DE5
:10014800911FD8B0912B886D891FD8B0892B76C0A4
:100158006DF0910EF66EFF0EF76E000EF86E080049
:10016800F5CF6EF07451CAEC01F000018E518F1179
:10017800D8A404D090519111D8B4120090518E5D3A
:100188008F51800A7C6F9151800A7C59D8A035D054
:10019800000E7F6F000E7E6F82518A2783518B235A
:1001A80088517E2789517F237E518E5D8F51800A29
:1001B8007C6F7F51800A7C59D8B008D084518C2735
:1001C80085518D2386517E5F87517F5B8CC06DF092
:1001D800910EF66EFF0EF76E000EF86E0800F5CF62
:1001E8006EF08A51CAEC01F0000178518A19D4E105
:1001F80079518B19D8B41200CFD7000E816F000E39
:10020800806F84518C2785518D2386518027875193
:1002180081238051905D9151800A7C6F8151800AC1
:100228007C59D8B008D082518A2783518B238851B2
:10023800805F8951815B8CC06DF0910EF66EFF0E68
:10024800F76E000EF86E0800F5CF6EF08A51CAEC12
:1002580001F000017A518C19D4E17B518D19D8B481
:100268001200CFD7000E00016A6F36501CEC02F066
:10027800D40E00016C6FFF0E6D6F30EC06F0000EAF
:1002880000016A6F3550FC0F1CEC02F0F80E0001FB
:100298006C6FFF0E6D6F30EC06F0000E0001756F8D
:1002A800000E746F000E776F0C0E766F000E796F6C
:1002B8007F0E786F000E7B6F0C0E7A6F5CEC00F08F
:1002C800F80E35240001746F756BFF0E7523000E50
:1002D800776F000E766FF80E3524786F796BFF0E06
:1002E8007923000E7B6F3F0E7A6F5CEC00F0020EF4
:1002F80000016A6F36501CEC02F0F00E00016C6FC2
:10030800FF0E6D6F30EC06F0030E00016A6F365079
:100318001CEC02F0B50E00016C6FFF0E6D6F30EC37
:1003280006F0040E00016A6F36501CEC02F0AA0EAB
:1003380000016C6FFF0E6D6F30EC06F0050E0001CA
:100348006A6F36501CEC02F0E70E00016C6FFF0E6E
:100358006D6F30EC06F0060E00016A6F36501CEC2B
:1003680002F0CA0E00016C6FFF0E6D6F30EC06F0E4
:10037800070E00016A6F36501CEC02F0DE0E000119
:100388006C6FFF0E6D6F30EC06F012000001726F9B
:100398006DC060F00001616B000E636F080E626F44
:1003A80060EC02F000016051736F73C06AF0725123
:1003B8001CEC02F012EC04F00001716F6DC060F0EB
:1003C800616B000E636F080E626F60EC02F0000153
:1003D8006051736F73C06AF072511CEC02F012EC3A
:1003E80004F00001716F6DC060F0616B000E636F07
:1003F800080E626F60EC02F000016051736F73C009
:100408006AF072511CEC02F06DC06FF0070E00012B
:100418006F17010E706F6F2B02D0D89070376F2F47
:10042800FCD70001705171137151D7EC03F0120021
:1004380000016B6F6BC030F06AC02FF0000E000136
:100448006C6F010E6C6501D014D06CC026F0400EA4
:1004580016EC06F06CC026F000016A51B80916ECDB
:1004680006F06CC026F0C00E16EC06F000016C2BEE
:10047800E8D76BC060F0616B000E636F400E626F6F
:1004880060EC02F000016051266E6B513F0B400991
:1004980016EC06F06BC060F00001616B000E636F34
:1004A800400E626F60EC02F000016051266E6A51E6
:1004B800B80916EC06F01200000E0001656F63AF74
:1004C80006D0626D631FD8B0632B010E656F61AFF4
:1004D80006D0606D611FD8B0612B010E651B000E40
:1004E800676F000E666F62516311D8B41CD0010E9D
:1004F800646F04D0D89062376337642B63AFFAD740
:10050800D890663767376251605D63516159D8A0EA
:1005180005D06251605F6351615B6681D890633337
:100528006233642FEDD76551D8B404D0666D671F68
:10053800D8B0672B66C060F067C061F01200000E8B
:10054800066E04AE06D0036C041ED8B0042A010E51
:10055800066E02AE06D0016C021ED8B0022A010E49
:10056800061A000E086E000E076E03500410D8B469
:100578001CD0010E056E04D0D89003360436052A27
:1005880004AEFAD7D890073608360350015C0450F9
:100598000258D8A005D00350015E0450025A0780C3
:1005A800D89004320332052EEDD70650D8B404D0C3
:1005B800076C081ED8B0082A07C001F008C002F06E
:1005C800120081B4120002D0FBEC05F081A4FCD724
:1005D8003350D8B418D02BD0010E336E000E326EC3
:1005E8009CEC03F028D0020E07D0030E05D0060EAF
:1005F80003D0090E01D00A0E336E1DD0000E336EE3
:1006080036EC01F018D03450020AD8B4E5D7010A04
:10061800D8B4E9D7070AD8B4E8D7010AD8B4E7D7D5
:10062800030AD8B4E6D7010AD8B4E5D7E7D7000E4D
:10063800336E36EC01F084EC05F01200060E0F6EF6
:10064800300EE82EFED70F2EFCD700D081A803D09D
:100658000F6A0F2A01D00F6A81AA03D0106A102AE4
:1006680001D0106AD89010340F10126E030E0C6E61
:10067800410E5FEC03F081AA02D0010E01D0000EFA
:10068800300F5BEC05F081A802D0010E01D0000EFE
:10069800300F5BEC05F012C00FF0D8900F32010E4E
:1006A8000F163150010B0F18116E12C031F081CFA7
:1006B80081FFF29012000D6E0DC030F00CC02FF0CB
:1006C800000E0E6E010E0E6401D012D00EC009F09D
:1006D800400E48EC06F00EC009F00C50B80948EC82
:1006E80006F00EC009F0C00E48EC06F00E2AEAD754
:1006F8000DC001F0026A000E046E400E036EA3ECFA
:1007080002F00150096E0D503F0B400948EC06F00D
:100718000DC001F0026A000E046E400E036EA3ECD9
:1007280002F00150096E0C50B80948EC06F01200AE
:10073800000E00016A6F000E1CEC02F0C00E0001F2
:100748006C6FFF0E6D6F30EC06F0000E0001756FD8
:10075800000E746F000E776F090E766F000E796FBA
:100768007F0E786F000E7B6F090E7A6F5CEC00F0DD
:10077800020E00016A6F39501CEC02F09F0E000156
:100788006C6FFF0E6D6F30EC06F0040E00016A6F9F
:1007980039501CEC02F0920E00016C6FFF0E6D6F69
:1007A80030EC06F012000001686F30C060F0000104
:1007B800616B000E636F400E626F60EC02F0000127
:1007C800605160EC06F0266E26BEEFD7000E946EE0
:1007D8008092808468C082FF30C060F00001616B45
:1007E800000E636F400E626F60EC02F00001605112
:1007F8008AEC06F080864EEC07F0809630C060F0F8
:100808000001616B000E636F400E626F60EC02F0D6
:10081800000160519DEC06F0302A120030C060F0F3
:100828000001616B000E636F400E626F60EC02F0B6
:100838000001605160EC06F0266E26BEEFD7946882
:10084800060E801230C060F00001616B000E636F0D
:10085800400E626F60EC02F0000160518AEC06F015
:1008680080864EEC07F082CF68F0809630C060F04A
:100878000001616B000E636F400E626F60EC02F066
:10088800000160519DEC06F0302A00016851120009
:100898000A6E30C001F0026A000E046E400E036E4C
:1008A800A3EC02F00150D6EC06F0096E09BEF1D7B0
:1008B800000E946E809280840AC082FF30C001F0DE
:1008C800026A000E046E400E036EA3EC02F00150A3
:1008D800B0EC06F0808650EC07F0809630C001F04E
:1008E800026A000E046E400E036EA3EC02F0015083
:1008F800C3EC06F0302A1200000E0001756F070ED7
:10090800756501D0120075C06AF0000E1CEC02F08B
:10091800000E0001746F05D0000ED7EC03F0000143
:10092800742BFF0E6D6FFF0E6E6F36506F6F706B0E
:100938006D516F276E5170237451716F726B6F51C7
:10094800715D7251800A736F7051800A7359D8A013
:10095800E3D7752BD4D70001696F200E0001695FBA
:10096800000E6B6F000E6A6F6BBF06D06B511BE1F8
:10097800050E6A5DD8B017D06951050D6A51F32686
:100988006B51F422B10EF324F66EFD0EF420F76ECF
:10099800F86A000EF8220800F550D7EC03F00001C1
:1009A8006A4B6B2BE1D7000ED7EC03F01200000E58
:1009B80000016D6F020E6A6F3750000839241CEC75
:1009C80002F0000E00016D6F05D0000ED7EC03F0A9
:1009D80000016D2B37506D5DD8A0F7D7040E6A6FF4
:1009E8003750000839241CEC02F0000E00016D6F2E
:1009F80005D0000ED7EC03F000016D2B37506D5D6C
:100A0800D8B01200F6D7000E8D6E000E8C6E000E58
:100A1800896E000E8A6E000E8B6E050E966E010EA4
:100A2800926E9368000E946E0F0E956E000E0F0175
:100A38005D6F000E5C6F000E5B6F5A895A8B000E5B
:100A4800256E000E266E3BEC07F0000E256E000E9C
:100A5800266E36EC07F0F286120021D0020E000155
:100A68006A6F3750000839241CEC02F01EEC07F0BE
:100A78001200040E00016A6F3750000839241CEC7C
:100A880002F01EEC07F01200020E00016A6F3750E8
:100A9800000839241CEC02F01EEC07F0120032505A
:100AA800000AD8B4DBD7010AD8B4E3D7EDD70B6E68
:100AB800200E0B5E000E0D6E000E0C6E0DBE06D0E5
:100AC8000D501AE1050E0C5CD8B016D00B50050D70
:100AD8000C50F3260D50F422B10EF324F66EFD0EE1
:100AE800F420F76EF86A000EF8220800F5504CEC76
:100AF80004F00C4A0D2AE2D7000E4CEC04F0120068
:100B080019D080EC04F034C06AF0000E1CEC02F03E
:100B18001EEC07F01200DBEC04F031EC05F01200DB
:100B280080EC04F034C06AF0000E1CEC02F01EECFD
:100B380007F012003350000AD8B4E3D7010AD8B43A
:100B4800EAD7EED707EC07F0F28EF28C8D821A0EF8
:100B58000001926FF80EE82EFED7922FFCD700F016
:100B6800E8EC06F0FBEC05F036EC01F0000E336E15
:100B7800020E346E84EC05F0E5EC02F0FDD7140E9D
:100B8800D56E0B0ED76EDB0ED66ED650D7CF60F073
:100B98000001616B60C061F0606B6011276E61518C
:100BA800286EF294F28AA40E256E0E0E266E31EC93
:100BB80007F04AEC07F012008A0EF66E0E0EF76E7A
:100BC800000EF86E00EE35F010EE06F00900F5CFD5
:100BD800EEFFE550E150FAE1346A336A326A316A6D
:100BE800306A2F6A3B903B920001A6EF05F0000E99
:100BF80000016E6F070E6E6501D012006EC06AF0BC
:100C0800000E1CEC02F0000E00016D6F7F0E6D658A
:100C180001D006D0000ED7EC03F000016D2BF6D7FB
:100C28006E2BE8D70001696F265060EC06F00001D2
:100C3800686F68BFF9D7000E946EF90E80162650BB
:100C48008AEC06F069C082FF80864EEC07F0809639
:100C580026509DEC06F012000CD06CC0F6FF6DC05B
:100C6800F7FFF86A0800F550AFEC04F000016C4B90
:100C78006D2B6CC0F6FF6DC0F7FFF86A0800F550E1
:100C88000009D8B41200E9D70B6E0950D6EC06F06B
:100C98000A6E0ABEFAD7000E946EF90E8016095035
:100CA800B0EC06F00BC082FF808650EC07F080960F
:100CB8000950C3EC06F012000001616F946880824D
:100CC8008094000161518AEC06F080864EEC07F0B2
:100CD80082CF60F08096000161519DEC06F0000122
:100CE80060511200F2942850D76E27C0D6FF2950C1
:100CF8002A10D8B4120001D812000500FA6E295043
:100D0800FD6E2A50FE6EFF6AFA501200256E06D05C
:100D1800809A1200809C1200809E12002550000AC2
:100D2800D8B4F6D7010AD8B4F5D7030AD8A4120064
:100D3800F3D7256E06D0808A1200808C1200808E30
:100D480012002550000AD8B4F6D7010AD8B4F5D74E
:100D5800030AD8A41200F3D7016E06D0809A1200B5
:100D6800809C1200809E12000150000AD8B4F6D769
:100D7800010AD8B4F5D7030AD8A41200F3D7016E34
:100D880006D0808A1200808C1200808E12000150DA
:100D9800000AD8B4F6D7010AD8B4F5D7030AD8A4FC
:100DA8001200F3D7036E9468808280940350B0ECED
:100DB80006F0808650EC07F082CF02F08096035050
:100DC800C3EC06F00250120040EC07F0000E0001E0
:100DD8006A6F020E6A6501D012006AC026F03F0EE3
:100DE80016EC06F000016A2BF4D73C0EBB6E000E21
:100DF800BF6E0F0E9C6E800EBE6E180EBC6E000E7F
:100E0800BD6E998012004CEC07F007EC05F028EC59
:100E180007F0F9EC06F014EC07F0C3EC05F012004B
:100E2800020E886EF90EA96E000E876EB79E48EC0A
:100E380007F012007E0ED7EC03F03C0ED7EC03F05F
:100E4800180ED7EC03F01200600ED36E000ED26EAF
:100E5800000E9B6E000E9A6E120025C029F026C067
:100E68002AF0120025C02BF026C02CF0120025C055
:100E78002DF026C02EF01200E00E8012110E9216F0
:100E880012004C0404410A0388841200D58E120013
:0E0E9800D09E120000F0120000F012001200B6
:10FDB00000000000000000005F00000007000700D6
:10FDC000147F147F14242A7F2A12231308646236B6
:10FDD000495522500005030000001C22410000414B
:10FDE000221C00082A1C2A0808083E080800503077
:10FDF000000008080808080030300000201008043F
:10FE0000023E5149453E00427F4000426151494611
:10FE10002141454B311814127F1027454545393C87
:10FE20004A494930017109050336494949360649AD
:10FE300049291E003636000000563600000008141E
:10FE4000224114141414144122140800020151090F
:10FE500006324979413E7E1111117E7F494949366A
:10FE60003E414141227F4141221C7F494949417F16
:10FE7000090901013E414151327F0808087F0041D4
:10FE80007F41002040413F017F081422417F4040D4
:10FE900040407F0204027F7F0408107F3E414141C1
:10FEA0003E7F090909063E4151215E7F0919294615
:10FEB000464949493101017F01013F4040403F1F10
:10FEC0002040201F7F2018207F6314081463030440
:10FED000780403615149454300007F414102040811
:10FEE000102041417F0000040201020440404040D4
:10FEF00040000102040020545454787F48444438A0
:10FF00003844444420384444487F385454541808F2
:10FF10007E090102081454543C7F0804047800440C
:10FF20007D40002040443D00007F10284400417F78
:10FF300040007C041804787C080404783844444465
:10FF4000387C14141408081414187C7C0804040861
:10FF50004854545420043F4440203C4040207C1CE2
:10FF60002040201C3C4030403C44281028440C5089
:10FF700050503C4464544C44000836410000007F1B
:10FF80000000004136080008082A1C08081C2A083E
:10FF9000080154696D652041667465723A2000520B
:10FFA000756E2054696D653A200053746172744314
:10FFB0006F6C6F72004272696768746E657373006C
:10FFC00052756E2054696D6573004261636B6C6994
:10FFD000676874004D61696E204D656E75005365EC
:10FFE0006C537461746500456E64436F6C6F72008E
:10FFF00052756E54696D650056616C7565730000CD
:020000040020DA
:08000000FFFFFFFFFFFFFFFF00
:020000040030CA
:0E00000015087F7CFF8991FF0FC00FE00F40B5
:00000001FF
